{
  "contractName": "Benefactio",
  "abi": [
    {
      "constant": true,
      "inputs": [
        {
          "name": "",
          "type": "uint256"
        }
      ],
      "name": "projects",
      "outputs": [
        {
          "name": "recipient",
          "type": "address"
        },
        {
          "name": "amount",
          "type": "uint256"
        },
        {
          "name": "name",
          "type": "string"
        },
        {
          "name": "description",
          "type": "string"
        },
        {
          "name": "projectHash",
          "type": "bytes32"
        },
        {
          "name": "numberOfDonations",
          "type": "uint256"
        },
        {
          "name": "currentAmount",
          "type": "uint256"
        },
        {
          "name": "closed",
          "type": "bool"
        },
        {
          "name": "approved",
          "type": "bool"
        },
        {
          "name": "lastDonation",
          "type": "uint256"
        }
      ],
      "payable": false,
      "stateMutability": "view",
      "type": "function"
    },
    {
      "constant": true,
      "inputs": [
        {
          "name": "",
          "type": "address"
        }
      ],
      "name": "actorId",
      "outputs": [
        {
          "name": "",
          "type": "uint256"
        }
      ],
      "payable": false,
      "stateMutability": "view",
      "type": "function"
    },
    {
      "constant": true,
      "inputs": [],
      "name": "status",
      "outputs": [
        {
          "name": "",
          "type": "bool"
        }
      ],
      "payable": false,
      "stateMutability": "view",
      "type": "function"
    },
    {
      "constant": true,
      "inputs": [],
      "name": "numProjects",
      "outputs": [
        {
          "name": "",
          "type": "uint256"
        }
      ],
      "payable": false,
      "stateMutability": "view",
      "type": "function"
    },
    {
      "constant": false,
      "inputs": [],
      "name": "acceptOwnership",
      "outputs": [],
      "payable": false,
      "stateMutability": "nonpayable",
      "type": "function"
    },
    {
      "constant": true,
      "inputs": [],
      "name": "owner",
      "outputs": [
        {
          "name": "",
          "type": "address"
        }
      ],
      "payable": false,
      "stateMutability": "view",
      "type": "function"
    },
    {
      "constant": true,
      "inputs": [],
      "name": "newOwner",
      "outputs": [
        {
          "name": "",
          "type": "address"
        }
      ],
      "payable": false,
      "stateMutability": "view",
      "type": "function"
    },
    {
      "constant": false,
      "inputs": [
        {
          "name": "_newOwner",
          "type": "address"
        }
      ],
      "name": "transferOwnership",
      "outputs": [],
      "payable": false,
      "stateMutability": "nonpayable",
      "type": "function"
    },
    {
      "inputs": [],
      "payable": false,
      "stateMutability": "nonpayable",
      "type": "constructor"
    },
    {
      "payable": false,
      "stateMutability": "nonpayable",
      "type": "fallback"
    },
    {
      "anonymous": false,
      "inputs": [
        {
          "indexed": false,
          "name": "projectId",
          "type": "uint256"
        },
        {
          "indexed": false,
          "name": "recipient",
          "type": "address"
        },
        {
          "indexed": false,
          "name": "amount",
          "type": "uint256"
        },
        {
          "indexed": false,
          "name": "name",
          "type": "string"
        },
        {
          "indexed": false,
          "name": "approved",
          "type": "bool"
        }
      ],
      "name": "ProjectAdded",
      "type": "event"
    },
    {
      "anonymous": false,
      "inputs": [
        {
          "indexed": false,
          "name": "projectId",
          "type": "uint256"
        },
        {
          "indexed": false,
          "name": "recipient",
          "type": "address"
        },
        {
          "indexed": false,
          "name": "amount",
          "type": "uint256"
        }
      ],
      "name": "ProjectClosed",
      "type": "event"
    },
    {
      "anonymous": false,
      "inputs": [
        {
          "indexed": false,
          "name": "projectId",
          "type": "uint256"
        },
        {
          "indexed": false,
          "name": "approved",
          "type": "bool"
        }
      ],
      "name": "ProjectStatus",
      "type": "event"
    },
    {
      "anonymous": false,
      "inputs": [
        {
          "indexed": false,
          "name": "donationId",
          "type": "uint256"
        },
        {
          "indexed": false,
          "name": "projectId",
          "type": "uint256"
        },
        {
          "indexed": false,
          "name": "benefactor",
          "type": "address"
        },
        {
          "indexed": false,
          "name": "amount",
          "type": "uint256"
        },
        {
          "indexed": false,
          "name": "message",
          "type": "string"
        }
      ],
      "name": "NewDonation",
      "type": "event"
    },
    {
      "anonymous": false,
      "inputs": [
        {
          "indexed": false,
          "name": "actor",
          "type": "address"
        },
        {
          "indexed": false,
          "name": "isActor",
          "type": "bool"
        }
      ],
      "name": "ActorsChanged",
      "type": "event"
    },
    {
      "anonymous": false,
      "inputs": [
        {
          "indexed": false,
          "name": "status",
          "type": "bool"
        }
      ],
      "name": "PlatformStatus",
      "type": "event"
    },
    {
      "anonymous": false,
      "inputs": [
        {
          "indexed": true,
          "name": "_from",
          "type": "address"
        },
        {
          "indexed": true,
          "name": "_to",
          "type": "address"
        }
      ],
      "name": "OwnershipTransferred",
      "type": "event"
    },
    {
      "anonymous": false,
      "inputs": [
        {
          "indexed": true,
          "name": "_from",
          "type": "address"
        },
        {
          "indexed": true,
          "name": "_to",
          "type": "address"
        },
        {
          "indexed": false,
          "name": "_tokens",
          "type": "uint256"
        }
      ],
      "name": "Transfer",
      "type": "event"
    },
    {
      "constant": false,
      "inputs": [],
      "name": "open",
      "outputs": [],
      "payable": false,
      "stateMutability": "nonpayable",
      "type": "function"
    },
    {
      "constant": false,
      "inputs": [],
      "name": "close",
      "outputs": [],
      "payable": false,
      "stateMutability": "nonpayable",
      "type": "function"
    },
    {
      "constant": false,
      "inputs": [
        {
          "name": "amount",
          "type": "uint256"
        },
        {
          "name": "projectName",
          "type": "string"
        },
        {
          "name": "projectDescription",
          "type": "string"
        }
      ],
      "name": "newProject",
      "outputs": [
        {
          "name": "projectId",
          "type": "uint256"
        }
      ],
      "payable": false,
      "stateMutability": "nonpayable",
      "type": "function"
    },
    {
      "constant": false,
      "inputs": [
        {
          "name": "projectId",
          "type": "uint256"
        }
      ],
      "name": "projectApprove",
      "outputs": [],
      "payable": false,
      "stateMutability": "nonpayable",
      "type": "function"
    },
    {
      "constant": true,
      "inputs": [
        {
          "name": "projectId",
          "type": "uint256"
        },
        {
          "name": "recipient",
          "type": "address"
        },
        {
          "name": "amount",
          "type": "uint256"
        },
        {
          "name": "name",
          "type": "string"
        }
      ],
      "name": "checkProjectHash",
      "outputs": [
        {
          "name": "code",
          "type": "bool"
        }
      ],
      "payable": false,
      "stateMutability": "view",
      "type": "function"
    },
    {
      "constant": false,
      "inputs": [
        {
          "name": "projectId",
          "type": "uint256"
        },
        {
          "name": "supportMessage",
          "type": "string"
        }
      ],
      "name": "makeDonation",
      "outputs": [
        {
          "name": "donationId",
          "type": "uint256"
        }
      ],
      "payable": true,
      "stateMutability": "payable",
      "type": "function"
    },
    {
      "constant": true,
      "inputs": [
        {
          "name": "projectId",
          "type": "uint256"
        }
      ],
      "name": "getProjectDonationsCount",
      "outputs": [
        {
          "name": "",
          "type": "uint256"
        }
      ],
      "payable": false,
      "stateMutability": "view",
      "type": "function"
    },
    {
      "constant": true,
      "inputs": [
        {
          "name": "projectId",
          "type": "uint256"
        },
        {
          "name": "donationId",
          "type": "uint256"
        }
      ],
      "name": "getProjectDonation",
      "outputs": [
        {
          "name": "benefactor",
          "type": "address"
        },
        {
          "name": "amount",
          "type": "uint256"
        },
        {
          "name": "message",
          "type": "string"
        }
      ],
      "payable": false,
      "stateMutability": "view",
      "type": "function"
    },
    {
      "constant": false,
      "inputs": [
        {
          "name": "projectId",
          "type": "uint256"
        }
      ],
      "name": "retrieveDonations",
      "outputs": [],
      "payable": false,
      "stateMutability": "nonpayable",
      "type": "function"
    }
  ],
  "bytecode": "0x608060405234801561001057600080fd5b50336000806101000a81548173ffffffffffffffffffffffffffffffffffffffff021916908373ffffffffffffffffffffffffffffffffffffffff16021790555061006861006d640100000000026401000000009004565b610121565b6000809054906101000a900473ffffffffffffffffffffffffffffffffffffffff1673ffffffffffffffffffffffffffffffffffffffff163373ffffffffffffffffffffffffffffffffffffffff161415156100c857600080fd5b6000600360006101000a81548160ff0219169083151502179055507fd8b3bf9c320266e1c148e47e62cb34ce82ad60076e6f04a4ed3be8e69d21cef86000604051808215151515815260200191505060405180910390a1565b611f82806101306000396000f3006080604052600436106100f1576000357c0100000000000000000000000000000000000000000000000000000000900463ffffffff168063107046bd1461010357806315375f0d1461028957806315d0c85a146102ca5780631a15c0c41461033b578063200d2ed214610392578063438a125f146103c157806343d726d6146103ee57806343e974f8146104055780635a067baa1461048c5780636497585b146104b757806379ba5097146105a15780638da5cb5b146105b8578063aec8d8591461060f578063d4ee1d901461065b578063f2fde38b146106b2578063f4f8609c146106f5578063fcfff16f14610722575b3480156100fd57600080fd5b50600080fd5b34801561010f57600080fd5b5061012e60048036038101908080359060200190929190505050610739565b604051808b73ffffffffffffffffffffffffffffffffffffffff1673ffffffffffffffffffffffffffffffffffffffff1681526020018a815260200180602001806020018960001916600019168152602001888152602001878152602001861515151581526020018515151515815260200184815260200183810383528b818151815260200191508051906020019080838360005b838110156101de5780820151818401526020810190506101c3565b50505050905090810190601f16801561020b5780820380516001836020036101000a031916815260200191505b5083810382528a818151815260200191508051906020019080838360005b83811015610244578082015181840152602081019050610229565b50505050905090810190601f1680156102715780820380516001836020036101000a031916815260200191505b509c5050505050505050505050505060405180910390f35b34801561029557600080fd5b506102b460048036038101908080359060200190929190505050610906565b6040518082815260200191505060405180910390f35b3480156102d657600080fd5b5061032560048036038101908080359060200190929190803590602001908201803590602001919091929391929390803590602001908201803590602001919091929391929390505050610938565b6040518082815260200191505060405180910390f35b34801561034757600080fd5b5061037c600480360381019080803573ffffffffffffffffffffffffffffffffffffffff169060200190929190505050610c7e565b6040518082815260200191505060405180910390f35b34801561039e57600080fd5b506103a7610c96565b604051808215151515815260200191505060405180910390f35b3480156103cd57600080fd5b506103ec60048036038101908080359060200190929190505050610ca9565b005b3480156103fa57600080fd5b50610403610fef565b005b34801561041157600080fd5b5061047260048036038101908080359060200190929190803573ffffffffffffffffffffffffffffffffffffffff169060200190929190803590602001909291908035906020019082018035906020019190919293919293905050506110a3565b604051808215151515815260200191505060405180910390f35b34801561049857600080fd5b506104a16111b3565b6040518082815260200191505060405180910390f35b3480156104c357600080fd5b506104ec60048036038101908080359060200190929190803590602001909291905050506111b9565b604051808473ffffffffffffffffffffffffffffffffffffffff1673ffffffffffffffffffffffffffffffffffffffff16815260200183815260200180602001828103825283818151815260200191508051906020019080838360005b83811015610564578082015181840152602081019050610549565b50505050905090810190601f1680156105915780820380516001836020036101000a031916815260200191505b5094505050505060405180910390f35b3480156105ad57600080fd5b506105b66112d7565b005b3480156105c457600080fd5b506105cd611476565b604051808273ffffffffffffffffffffffffffffffffffffffff1673ffffffffffffffffffffffffffffffffffffffff16815260200191505060405180910390f35b6106456004803603810190808035906020019092919080359060200190820180359060200191909192939192939050505061149b565b6040518082815260200191505060405180910390f35b34801561066757600080fd5b50610670611788565b604051808273ffffffffffffffffffffffffffffffffffffffff1673ffffffffffffffffffffffffffffffffffffffff16815260200191505060405180910390f35b3480156106be57600080fd5b506106f3600480360381019080803573ffffffffffffffffffffffffffffffffffffffff1690602001909291905050506117ae565b005b34801561070157600080fd5b506107206004803603810190808035906020019092919050505061184d565b005b34801561072e57600080fd5b50610737611960565b005b60058181548110151561074857fe5b90600052602060002090600a02016000915090508060000160009054906101000a900473ffffffffffffffffffffffffffffffffffffffff1690806001015490806002018054600181600116156101000203166002900480601f0160208091040260200160405190810160405280929190818152602001828054600181600116156101000203166002900480156108205780601f106107f557610100808354040283529160200191610820565b820191906000526020600020905b81548152906001019060200180831161080357829003601f168201915b505050505090806003018054600181600116156101000203166002900480601f0160208091040260200160405190810160405280929190818152602001828054600181600116156101000203166002900480156108be5780601f10610893576101008083540402835291602001916108be565b820191906000526020600020905b8154815290600101906020018083116108a157829003601f168201915b5050505050908060040154908060050154908060060154908060070160009054906101000a900460ff16908060070160019054906101000a900460ff1690806008015490508a565b60008060058381548110151561091857fe5b90600052602060002090600a020190508060090180549050915050919050565b6000806001600360006101000a81548160ff0219169083151502179055151561096057600080fd5b600580548091906001016109749190611c3d565b915060058281548110151561098557fe5b90600052602060002090600a02019050338160000160006101000a81548173ffffffffffffffffffffffffffffffffffffffff021916908373ffffffffffffffffffffffffffffffffffffffff16021790555060018702816001018190555085858260020191906109f7929190611c6f565b508383826003019190610a0b929190611c6f565b5033878787604051602001808573ffffffffffffffffffffffffffffffffffffffff1673ffffffffffffffffffffffffffffffffffffffff166c0100000000000000000000000002815260140184815260200183838082843782019150509450505050506040516020818303038152906040526040518082805190602001908083835b602083101515610ab35780518252602082019150602081019050602083039250610a8e565b6001836020036101000a038019825116818451168082178552505050505050905001915050604051809103902081600401816000191690555060008160070160006101000a81548160ff02191690831515021790555060008160070160016101000a81548160ff0219169083151502179055507fad029e3588fde6752fb73c61133ae0d8a6a2a9abcdb9158b7ba5f17c9f133e37828260000160009054906101000a900473ffffffffffffffffffffffffffffffffffffffff1689846002018560070160019054906101000a900460ff16604051808681526020018573ffffffffffffffffffffffffffffffffffffffff1673ffffffffffffffffffffffffffffffffffffffff1681526020018481526020018060200183151515158152602001828103825284818154600181600116156101000203166002900481526020019150805460018160011615610100020316600290048015610c555780601f10610c2a57610100808354040283529160200191610c55565b820191906000526020600020905b815481529060010190602001808311610c3857829003601f168201915b5050965050505050505060405180910390a1600182016002819055508191505095945050505050565b60046020528060005260406000206000915090505481565b600360009054906101000a900460ff1681565b600081600581815481101515610cbb57fe5b90600052602060002090600a020160000160009054906101000a900473ffffffffffffffffffffffffffffffffffffffff1673ffffffffffffffffffffffffffffffffffffffff163373ffffffffffffffffffffffffffffffffffffffff16141515610d2657600080fd5b6001600360006101000a81548160ff02191690831515021790551515610d4b57600080fd5b600583815481101515610d5a57fe5b90600052602060002090600a02019150600015158260070160009054906101000a900460ff161515148015610d985750605a60ff1682600801540142115b8015610ef957508160000160009054906101000a900473ffffffffffffffffffffffffffffffffffffffff16826001015483600201604051602001808473ffffffffffffffffffffffffffffffffffffffff1673ffffffffffffffffffffffffffffffffffffffff166c0100000000000000000000000002815260140183815260200182805460018160011615610100020316600290048015610e725780601f10610e50576101008083540402835291820191610e72565b820191906000526020600020905b815481529060010190602001808311610e5e575b505093505050506040516020818303038152906040526040518082805190602001908083835b602083101515610ebd5780518252602082019150602081019050602083039250610e98565b6001836020036101000a038019825116818451168082178552505050505050905001915050604051809103902060001916826004015460001916145b1515610f0457600080fd5b81600101548260060154101515610fea57610f26336001846001015402611a14565b1515610f3157600080fd5b60018260070160006101000a81548160ff0219169083151502179055507f67fa9cc3e4d0e1149807068cafc06619e43566e289268916bc4a2bc667b54a6c838360000160009054906101000a900473ffffffffffffffffffffffffffffffffffffffff168460010154604051808481526020018373ffffffffffffffffffffffffffffffffffffffff1673ffffffffffffffffffffffffffffffffffffffff168152602001828152602001935050505060405180910390a15b505050565b6000809054906101000a900473ffffffffffffffffffffffffffffffffffffffff1673ffffffffffffffffffffffffffffffffffffffff163373ffffffffffffffffffffffffffffffffffffffff1614151561104a57600080fd5b6000600360006101000a81548160ff0219169083151502179055507fd8b3bf9c320266e1c148e47e62cb34ce82ad60076e6f04a4ed3be8e69d21cef86000604051808215151515815260200191505060405180910390a1565b6000806005878154811015156110b557fe5b90600052602060002090600a0201905085858585604051602001808573ffffffffffffffffffffffffffffffffffffffff1673ffffffffffffffffffffffffffffffffffffffff166c0100000000000000000000000002815260140184815260200183838082843782019150509450505050506040516020818303038152906040526040518082805190602001908083835b60208310151561116c5780518252602082019150602081019050602083039250611147565b6001836020036101000a0380198251168184511680821785525050505050509050019150506040518091039020600019168160040154600019161491505095945050505050565b60025481565b60008060606000806005878154811015156111d057fe5b90600052602060002090600a0201915081600901868154811015156111f157fe5b906000526020600020906003020190508060000160009054906101000a900473ffffffffffffffffffffffffffffffffffffffff16945080600101549350806002018054600181600116156101000203166002900480601f0160208091040260200160405190810160405280929190818152602001828054600181600116156101000203166002900480156112c75780601f1061129c576101008083540402835291602001916112c7565b820191906000526020600020905b8154815290600101906020018083116112aa57829003601f168201915b5050505050925050509250925092565b600160009054906101000a900473ffffffffffffffffffffffffffffffffffffffff1673ffffffffffffffffffffffffffffffffffffffff163373ffffffffffffffffffffffffffffffffffffffff1614151561133357600080fd5b600160009054906101000a900473ffffffffffffffffffffffffffffffffffffffff1673ffffffffffffffffffffffffffffffffffffffff166000809054906101000a900473ffffffffffffffffffffffffffffffffffffffff1673ffffffffffffffffffffffffffffffffffffffff167f8be0079c531659141344cd1fd0a4f28419497f9722a3daafe3b4186f6b6457e060405160405180910390a3600160009054906101000a900473ffffffffffffffffffffffffffffffffffffffff166000806101000a81548173ffffffffffffffffffffffffffffffffffffffff021916908373ffffffffffffffffffffffffffffffffffffffff1602179055506000600160006101000a81548173ffffffffffffffffffffffffffffffffffffffff021916908373ffffffffffffffffffffffffffffffffffffffff160217905550565b6000809054906101000a900473ffffffffffffffffffffffffffffffffffffffff1681565b6000806001600360006101000a81548160ff021916908315150217905515156114c357600080fd5b6005858154811015156114d257fe5b90600052602060002090600a020190508060000160009054906101000a900473ffffffffffffffffffffffffffffffffffffffff1673ffffffffffffffffffffffffffffffffffffffff163373ffffffffffffffffffffffffffffffffffffffff161415801561154a57508060060154816001015410155b801561156b5750600115158160070160019054906101000a900460ff161515145b801561158c5750600015158160070160009054906101000a900460ff161515145b801561159e575061159d3034611b30565b5b15156115a957600080fd5b8060090180548091906001016115bf9190611cef565b91506060604051908101604052803373ffffffffffffffffffffffffffffffffffffffff16815260200134815260200185858080601f016020809104026020016040519081016040528093929190818152602001838380828437820191505050505050815250816009018381548110151561163657fe5b906000526020600020906003020160008201518160000160006101000a81548173ffffffffffffffffffffffffffffffffffffffff021916908373ffffffffffffffffffffffffffffffffffffffff1602179055506020820151816001015560408201518160020190805190602001906116b1929190611d21565b509050506001820181600501819055503481600601600082825401925050819055504281600801819055507f3c3b44e1ab33da12078cac96e7aa5a3706fe93a9df720b71e866a7c535cb525a828633348888604051808781526020018681526020018573ffffffffffffffffffffffffffffffffffffffff1673ffffffffffffffffffffffffffffffffffffffff168152602001848152602001806020018281038252848482818152602001925080828437820191505097505050505050505060405180910390a180600501549150509392505050565b600160009054906101000a900473ffffffffffffffffffffffffffffffffffffffff1681565b6000809054906101000a900473ffffffffffffffffffffffffffffffffffffffff1673ffffffffffffffffffffffffffffffffffffffff163373ffffffffffffffffffffffffffffffffffffffff1614151561180957600080fd5b80600160006101000a81548173ffffffffffffffffffffffffffffffffffffffff021916908373ffffffffffffffffffffffffffffffffffffffff16021790555050565b60008060009054906101000a900473ffffffffffffffffffffffffffffffffffffffff1673ffffffffffffffffffffffffffffffffffffffff163373ffffffffffffffffffffffffffffffffffffffff161415156118aa57600080fd5b6005828154811015156118b957fe5b90600052602060002090600a02019050600015158160070160019054906101000a900460ff1615151415156118ed57600080fd5b60018160070160016101000a81548160ff0219169083151502179055507f5acfcecb3b608e8468b0b3a6474e8e3fa7649b91bb3e386348e9be8bf4d0c24282600360009054906101000a900460ff1660405180838152602001821515151581526020019250505060405180910390a15050565b6000809054906101000a900473ffffffffffffffffffffffffffffffffffffffff1673ffffffffffffffffffffffffffffffffffffffff163373ffffffffffffffffffffffffffffffffffffffff161415156119bb57600080fd5b6001600360006101000a81548160ff0219169083151502179055507fd8b3bf9c320266e1c148e47e62cb34ce82ad60076e6f04a4ed3be8e69d21cef86001604051808215151515815260200191505060405180910390a1565b60008082111515611a2457600080fd5b611a4e823073ffffffffffffffffffffffffffffffffffffffff1631611c0590919063ffffffff16565b50611a79828473ffffffffffffffffffffffffffffffffffffffff1631611c2190919063ffffffff16565b508273ffffffffffffffffffffffffffffffffffffffff166108fc839081150290604051600060405180830381858888f19350505050158015611ac0573d6000803e3d6000fd5b508273ffffffffffffffffffffffffffffffffffffffff163073ffffffffffffffffffffffffffffffffffffffff167fddf252ad1be2c89b69c2b068fc378daa952ba7f163c4a11628f55a4df523b3ef846040518082815260200191505060405180910390a36001905092915050565b60008082111515611b4057600080fd5b611b6a823373ffffffffffffffffffffffffffffffffffffffff1631611c0590919063ffffffff16565b50611b95828473ffffffffffffffffffffffffffffffffffffffff1631611c2190919063ffffffff16565b508273ffffffffffffffffffffffffffffffffffffffff163373ffffffffffffffffffffffffffffffffffffffff167fddf252ad1be2c89b69c2b068fc378daa952ba7f163c4a11628f55a4df523b3ef846040518082815260200191505060405180910390a36001905092915050565b6000828211151515611c1657600080fd5b818303905092915050565b60008183019050828110151515611c3757600080fd5b92915050565b815481835581811115611c6a57600a0281600a028360005260206000209182019101611c699190611da1565b5b505050565b828054600181600116156101000203166002900490600052602060002090601f016020900481019282601f10611cb057803560ff1916838001178555611cde565b82800160010185558215611cde579182015b82811115611cdd578235825591602001919060010190611cc2565b5b509050611ceb9190611e67565b5090565b815481835581811115611d1c57600302816003028360005260206000209182019101611d1b9190611e8c565b5b505050565b828054600181600116156101000203166002900490600052602060002090601f016020900481019282601f10611d6257805160ff1916838001178555611d90565b82800160010185558215611d90579182015b82811115611d8f578251825591602001919060010190611d74565b5b509050611d9d9190611e67565b5090565b611e6491905b80821115611e6057600080820160006101000a81549073ffffffffffffffffffffffffffffffffffffffff02191690556001820160009055600282016000611def9190611eea565b600382016000611dff9190611eea565b6004820160009055600582016000905560068201600090556007820160006101000a81549060ff02191690556007820160016101000a81549060ff02191690556008820160009055600982016000611e579190611f32565b50600a01611da7565b5090565b90565b611e8991905b80821115611e85576000816000905550600101611e6d565b5090565b90565b611ee791905b80821115611ee357600080820160006101000a81549073ffffffffffffffffffffffffffffffffffffffff02191690556001820160009055600282016000611eda9190611eea565b50600301611e92565b5090565b90565b50805460018160011615610100020316600290046000825580601f10611f105750611f2f565b601f016020900490600052602060002090810190611f2e9190611e67565b5b50565b5080546000825560030290600052602060002090810190611f539190611e8c565b505600a165627a7a7230582078ce4655d8897a23e9cfc26cdd98e3d01e430af0c5568f8637c09707bcbd68460029",
  "source": "pragma solidity ^0.4.24;\n\nimport './library/SafeMath.sol';\nimport './Owned.sol';\nimport './Token.sol';\n\n/// @title Benefact.io is a donation platform\n/// @author Johan Dufour\ncontract Benefactio is Token, Owned {\n    uint public numProjects;\n    bool public status;\n\n    mapping (address => uint) public actorId;\n\n    Project[] public projects;\n\n    event ProjectAdded(uint projectId, address recipient, uint amount, string name, bool approved);\n    event ProjectClosed(uint projectId, address recipient, uint amount);\n    event ProjectStatus(uint projectId, bool approved);\n    event NewDonation(uint donationId, uint projectId, address benefactor, uint amount, string message);\n    event ActorsChanged(address actor, bool isActor);\n    event PlatformStatus(bool status);\n\n    modifier onlyActor(uint projectId) {\n        require (msg.sender == projects[projectId].recipient);\n        _;\n    }\n\n    struct Project {\n        address recipient;\n        uint amount;\n        string name;\n        string description;\n        bytes32 projectHash;\n        uint numberOfDonations;\n        uint currentAmount;\n        bool closed;\n        bool approved;\n        uint lastDonation;\n\n        Donation[] donations;\n    }\n\n    struct Donation {\n        address benefactor;\n        uint amount;\n        string message;\n    }\n\n    /// @notice The constructor :)\n    constructor() public {\n        // the platform is closed by default\n        close();\n    }\n\n    /// @notice The platform can be opened or closed to business, forbidding methods that write to the contract's storage\n    function open() onlyOwner external {\n        status = true;\n        emit PlatformStatus(true);\n    }\n\n    /// @notice The platform can be opened or closed to business, forbidding methods that write to the contract's storage\n    function close() onlyOwner public {\n        status = false;\n        emit PlatformStatus(false);\n    }\n\n    /// @notice Create a new project\n    /// @param amount The amount of Wei required to fulfill the project (the goal)\n    /// @param projectName The name of the project\n    /// @param projectDescription The name project description\n    function newProject(\n        uint amount,\n        string projectName,\n        string projectDescription\n    ) external returns (uint projectId) {\n        // the platform must be open for business\n        require(status = true);\n\n        projectId = projects.length++;\n\n        Project storage p = projects[projectId];\n        p.recipient = msg.sender;\n        p.amount = amount * 1 wei;\n        p.name = projectName;\n        p.description = projectDescription;\n        p.projectHash = keccak256(abi.encodePacked(msg.sender, amount, projectName));\n        p.closed = false;\n        p.approved = false;\n\n        emit ProjectAdded(projectId, p.recipient, amount, p.name, p.approved);\n        numProjects = projectId + 1;\n\n        return projectId;\n    }\n\n    /// @notice Approve a project, a project must be approved by the owner before receiving any donations\n    /// @param projectId The project id\n    function projectApprove(uint projectId) onlyOwner external {\n        Project storage p = projects[projectId];\n\n        // the project mustn't be approved already\n        require(p.approved == false);\n        p.approved = true;\n\n        emit ProjectStatus(projectId, status);\n    }\n\n    /// @notice Verify the project integrity by recomputing its hash\n    /// @param projectId The project id\n    /// @param recipient The project creator\n    /// @param amount The goal in Wei of the project\n    /// @param name The name of the project\n    function checkProjectHash (\n        uint projectId,\n        address recipient,\n        uint amount,\n        string name\n    ) constant external returns (bool code) {\n        Project storage p = projects[projectId];\n        return p.projectHash == keccak256(abi.encodePacked(recipient, amount, name));\n    }\n\n    /// @notice Make a new donation to an existing project\n    /// @param projectId The project id\n    /// @param supportMessage A supportive message for the project creator\n    function makeDonation(\n        uint projectId,\n        string supportMessage\n    ) external payable returns (uint donationId) {\n        // the platform must be open for business\n        require(status = true);\n        Project storage p = projects[projectId];\n\n        require(\n            msg.sender != p.recipient && // the sender can't make a donation to himself\n            p.amount >= p.currentAmount &&\n            p.approved == true &&\n            p.closed == false &&\n            transfer(this, msg.value)\n        );\n\n        donationId = p.donations.length++;\n        p.donations[donationId] = Donation({benefactor: msg.sender, amount: msg.value, message: supportMessage});\n        p.numberOfDonations = donationId + 1;\n        p.currentAmount += msg.value;\n        p.lastDonation = block.timestamp;\n\n        emit NewDonation(donationId, projectId, msg.sender, msg.value, supportMessage);\n        return p.numberOfDonations;\n    }\n\n    /// @notice Get the number of donations on a project\n    /// @param projectId The project id\n    function getProjectDonationsCount(uint projectId) public constant returns (uint) {\n        Project storage p = projects[projectId];\n\n        return p.donations.length;\n    }\n\n    /// @notice Get a donation on a project\n    /// @param projectId The project id\n    /// @param donationId The donation id, start at 0\n    function getProjectDonation(uint projectId, uint donationId) public constant returns (address benefactor, uint amount, string message) {\n        Project storage p = projects[projectId];\n        Donation storage d = p.donations[donationId];\n\n        benefactor = d.benefactor;\n        amount = d.amount;\n        message = d.message;\n    }\n\n    /// @notice For a project creator only, claim the donations when the goal is reached\n    /// @param projectId The project id\n    function retrieveDonations(uint projectId) external onlyActor(projectId) {\n        // the platform must be open for business\n        require(status = true);\n\n        Project storage p = projects[projectId];\n\n        require(\n            p.closed == false &&\n            now > p.lastDonation + uint8(90) && // 6 blocks between must have passed between the last donation and the claim\n            p.projectHash == keccak256(abi.encodePacked(p.recipient, p.amount, p.name))\n        );\n\n        if (p.currentAmount >= p.amount) {\n            require(transferDonation(msg.sender, p.amount * 1 wei));\n\n            p.closed = true;\n            emit ProjectClosed(projectId, p.recipient, p.amount);\n        }\n    }\n\n    /// @notice Fallback when nothing else match\n    function () public {\n        revert();\n    }\n}\n",
  "sourcePath": "/home/lutangar/workspace/lepetitbloc/benefact.io/contracts/Benefactio.sol",
  "compiler": {
    "name": "solc",
    "version": "0.4.24+commit.e67f0147.Emscripten.clang"
  },
  "schemaVersion": "2.0.1",
  "updatedAt": "2018-08-27T16:46:35.519Z"
}