{
  "contractName": "Benefactio",
  "abi": [
    {
      "constant": true,
      "inputs": [
        {
          "name": "",
          "type": "uint256"
        }
      ],
      "name": "projects",
      "outputs": [
        {
          "name": "recipient",
          "type": "address"
        },
        {
          "name": "amount",
          "type": "uint256"
        },
        {
          "name": "name",
          "type": "string"
        },
        {
          "name": "description",
          "type": "string"
        },
        {
          "name": "projectHash",
          "type": "bytes32"
        },
        {
          "name": "numberOfDonations",
          "type": "uint256"
        },
        {
          "name": "currentAmount",
          "type": "uint256"
        },
        {
          "name": "closed",
          "type": "bool"
        },
        {
          "name": "approved",
          "type": "bool"
        },
        {
          "name": "lastDonation",
          "type": "uint256"
        }
      ],
      "payable": false,
      "stateMutability": "view",
      "type": "function"
    },
    {
      "constant": true,
      "inputs": [
        {
          "name": "",
          "type": "address"
        }
      ],
      "name": "actorId",
      "outputs": [
        {
          "name": "",
          "type": "uint256"
        }
      ],
      "payable": false,
      "stateMutability": "view",
      "type": "function"
    },
    {
      "constant": true,
      "inputs": [],
      "name": "status",
      "outputs": [
        {
          "name": "",
          "type": "bool"
        }
      ],
      "payable": false,
      "stateMutability": "view",
      "type": "function"
    },
    {
      "constant": true,
      "inputs": [],
      "name": "numProjects",
      "outputs": [
        {
          "name": "",
          "type": "uint256"
        }
      ],
      "payable": false,
      "stateMutability": "view",
      "type": "function"
    },
    {
      "constant": false,
      "inputs": [],
      "name": "acceptOwnership",
      "outputs": [],
      "payable": false,
      "stateMutability": "nonpayable",
      "type": "function"
    },
    {
      "constant": true,
      "inputs": [],
      "name": "owner",
      "outputs": [
        {
          "name": "",
          "type": "address"
        }
      ],
      "payable": false,
      "stateMutability": "view",
      "type": "function"
    },
    {
      "constant": true,
      "inputs": [],
      "name": "newOwner",
      "outputs": [
        {
          "name": "",
          "type": "address"
        }
      ],
      "payable": false,
      "stateMutability": "view",
      "type": "function"
    },
    {
      "constant": false,
      "inputs": [
        {
          "name": "_newOwner",
          "type": "address"
        }
      ],
      "name": "transferOwnership",
      "outputs": [],
      "payable": false,
      "stateMutability": "nonpayable",
      "type": "function"
    },
    {
      "inputs": [],
      "payable": false,
      "stateMutability": "nonpayable",
      "type": "constructor"
    },
    {
      "payable": false,
      "stateMutability": "nonpayable",
      "type": "fallback"
    },
    {
      "anonymous": false,
      "inputs": [
        {
          "indexed": false,
          "name": "projectId",
          "type": "uint256"
        },
        {
          "indexed": false,
          "name": "recipient",
          "type": "address"
        },
        {
          "indexed": false,
          "name": "amount",
          "type": "uint256"
        },
        {
          "indexed": false,
          "name": "name",
          "type": "string"
        },
        {
          "indexed": false,
          "name": "approved",
          "type": "bool"
        }
      ],
      "name": "ProjectAdded",
      "type": "event"
    },
    {
      "anonymous": false,
      "inputs": [
        {
          "indexed": false,
          "name": "projectId",
          "type": "uint256"
        },
        {
          "indexed": false,
          "name": "recipient",
          "type": "address"
        },
        {
          "indexed": false,
          "name": "amount",
          "type": "uint256"
        }
      ],
      "name": "ProjectClosed",
      "type": "event"
    },
    {
      "anonymous": false,
      "inputs": [
        {
          "indexed": false,
          "name": "projectId",
          "type": "uint256"
        },
        {
          "indexed": false,
          "name": "approved",
          "type": "bool"
        }
      ],
      "name": "ProjectStatus",
      "type": "event"
    },
    {
      "anonymous": false,
      "inputs": [
        {
          "indexed": false,
          "name": "projectId",
          "type": "uint256"
        },
        {
          "indexed": false,
          "name": "benefactor",
          "type": "address"
        },
        {
          "indexed": false,
          "name": "amount",
          "type": "uint256"
        },
        {
          "indexed": false,
          "name": "message",
          "type": "string"
        }
      ],
      "name": "NewDonation",
      "type": "event"
    },
    {
      "anonymous": false,
      "inputs": [
        {
          "indexed": false,
          "name": "actor",
          "type": "address"
        },
        {
          "indexed": false,
          "name": "isActor",
          "type": "bool"
        }
      ],
      "name": "ActorsChanged",
      "type": "event"
    },
    {
      "anonymous": false,
      "inputs": [
        {
          "indexed": false,
          "name": "status",
          "type": "bool"
        }
      ],
      "name": "PlatformStatus",
      "type": "event"
    },
    {
      "anonymous": false,
      "inputs": [
        {
          "indexed": true,
          "name": "_from",
          "type": "address"
        },
        {
          "indexed": true,
          "name": "_to",
          "type": "address"
        }
      ],
      "name": "OwnershipTransferred",
      "type": "event"
    },
    {
      "anonymous": false,
      "inputs": [
        {
          "indexed": true,
          "name": "_from",
          "type": "address"
        },
        {
          "indexed": true,
          "name": "_to",
          "type": "address"
        },
        {
          "indexed": false,
          "name": "_tokens",
          "type": "uint256"
        }
      ],
      "name": "Transfer",
      "type": "event"
    },
    {
      "constant": false,
      "inputs": [],
      "name": "open",
      "outputs": [],
      "payable": false,
      "stateMutability": "nonpayable",
      "type": "function"
    },
    {
      "constant": false,
      "inputs": [],
      "name": "close",
      "outputs": [],
      "payable": false,
      "stateMutability": "nonpayable",
      "type": "function"
    },
    {
      "constant": false,
      "inputs": [
        {
          "name": "amount",
          "type": "uint256"
        },
        {
          "name": "projectName",
          "type": "string"
        },
        {
          "name": "projectDescription",
          "type": "string"
        },
        {
          "name": "transactionBytecode",
          "type": "bytes"
        }
      ],
      "name": "newProject",
      "outputs": [
        {
          "name": "projectId",
          "type": "uint256"
        }
      ],
      "payable": false,
      "stateMutability": "nonpayable",
      "type": "function"
    },
    {
      "constant": false,
      "inputs": [
        {
          "name": "projectId",
          "type": "uint256"
        }
      ],
      "name": "projectApprove",
      "outputs": [],
      "payable": false,
      "stateMutability": "nonpayable",
      "type": "function"
    },
    {
      "constant": true,
      "inputs": [
        {
          "name": "projectId",
          "type": "uint256"
        },
        {
          "name": "beneficiary",
          "type": "address"
        },
        {
          "name": "amount",
          "type": "uint256"
        },
        {
          "name": "transactionBytecode",
          "type": "bytes"
        }
      ],
      "name": "checkProjectCode",
      "outputs": [
        {
          "name": "code",
          "type": "bool"
        }
      ],
      "payable": false,
      "stateMutability": "view",
      "type": "function"
    },
    {
      "constant": false,
      "inputs": [
        {
          "name": "projectId",
          "type": "uint256"
        },
        {
          "name": "supportMessage",
          "type": "string"
        }
      ],
      "name": "makeDonation",
      "outputs": [
        {
          "name": "donationId",
          "type": "uint256"
        }
      ],
      "payable": true,
      "stateMutability": "payable",
      "type": "function"
    },
    {
      "constant": false,
      "inputs": [
        {
          "name": "projectId",
          "type": "uint256"
        },
        {
          "name": "transactionBytecode",
          "type": "bytes"
        }
      ],
      "name": "retrieveDonations",
      "outputs": [],
      "payable": false,
      "stateMutability": "nonpayable",
      "type": "function"
    }
  ],
  "bytecode": "0x608060405234801561001057600080fd5b50336000806101000a81548173ffffffffffffffffffffffffffffffffffffffff021916908373ffffffffffffffffffffffffffffffffffffffff16021790555061006861006d640100000000026401000000009004565b610121565b6000809054906101000a900473ffffffffffffffffffffffffffffffffffffffff1673ffffffffffffffffffffffffffffffffffffffff163373ffffffffffffffffffffffffffffffffffffffff161415156100c857600080fd5b6000600360006101000a81548160ff0219169083151502179055507fd8b3bf9c320266e1c148e47e62cb34ce82ad60076e6f04a4ed3be8e69d21cef86000604051808215151515815260200191505060405180910390a1565b611cad806101306000396000f3006080604052600436106100db576000357c0100000000000000000000000000000000000000000000000000000000900463ffffffff16806304aef260146100ed578063107046bd146101325780631a15c0c4146102b8578063200d2ed21461030f57806337f4e3511461033e57806343d726d6146103c55780635a067baa146103dc57806379ba5097146104075780638da5cb5b1461041e578063aec8d85914610475578063d4ee1d90146104c1578063e3103a3b14610518578063f2fde38b146105a1578063f4f8609c146105e4578063fcfff16f14610611575b3480156100e757600080fd5b50600080fd5b3480156100f957600080fd5b5061013060048036038101908080359060200190929190803590602001908201803590602001919091929391929390505050610628565b005b34801561013e57600080fd5b5061015d60048036038101908080359060200190929190505050610921565b604051808b73ffffffffffffffffffffffffffffffffffffffff1673ffffffffffffffffffffffffffffffffffffffff1681526020018a815260200180602001806020018960001916600019168152602001888152602001878152602001861515151581526020018515151515815260200184815260200183810383528b818151815260200191508051906020019080838360005b8381101561020d5780820151818401526020810190506101f2565b50505050905090810190601f16801561023a5780820380516001836020036101000a031916815260200191505b5083810382528a818151815260200191508051906020019080838360005b83811015610273578082015181840152602081019050610258565b50505050905090810190601f1680156102a05780820380516001836020036101000a031916815260200191505b509c5050505050505050505050505060405180910390f35b3480156102c457600080fd5b506102f9600480360381019080803573ffffffffffffffffffffffffffffffffffffffff169060200190929190505050610aee565b6040518082815260200191505060405180910390f35b34801561031b57600080fd5b50610324610b06565b604051808215151515815260200191505060405180910390f35b34801561034a57600080fd5b506103ab60048036038101908080359060200190929190803573ffffffffffffffffffffffffffffffffffffffff16906020019092919080359060200190929190803590602001908201803590602001919091929391929390505050610b19565b604051808215151515815260200191505060405180910390f35b3480156103d157600080fd5b506103da610c29565b005b3480156103e857600080fd5b506103f1610cdd565b6040518082815260200191505060405180910390f35b34801561041357600080fd5b5061041c610ce3565b005b34801561042a57600080fd5b50610433610e82565b604051808273ffffffffffffffffffffffffffffffffffffffff1673ffffffffffffffffffffffffffffffffffffffff16815260200191505060405180910390f35b6104ab60048036038101908080359060200190929190803590602001908201803590602001919091929391929390505050610ea7565b6040518082815260200191505060405180910390f35b3480156104cd57600080fd5b506104d661116b565b604051808273ffffffffffffffffffffffffffffffffffffffff1673ffffffffffffffffffffffffffffffffffffffff16815260200191505060405180910390f35b34801561052457600080fd5b5061058b60048036038101908080359060200190929190803590602001908201803590602001919091929391929390803590602001908201803590602001919091929391929390803590602001908201803590602001919091929391929390505050611191565b6040518082815260200191505060405180910390f35b3480156105ad57600080fd5b506105e2600480360381019080803573ffffffffffffffffffffffffffffffffffffffff1690602001909291905050506114d9565b005b3480156105f057600080fd5b5061060f60048036038101908080359060200190929190505050611578565b005b34801561061d57600080fd5b5061062661168b565b005b60008360058181548110151561063a57fe5b90600052602060002090600a020160000160009054906101000a900473ffffffffffffffffffffffffffffffffffffffff1673ffffffffffffffffffffffffffffffffffffffff163373ffffffffffffffffffffffffffffffffffffffff161415156106a557600080fd5b6001600360006101000a81548160ff021916908315150217905515156106ca57600080fd5b6005858154811015156106d957fe5b90600052602060002090600a02019150600015158260070160009054906101000a900460ff1615151480156107175750605a60ff1682600801540142115b801561082957508160000160009054906101000a900473ffffffffffffffffffffffffffffffffffffffff1682600101548585604051602001808573ffffffffffffffffffffffffffffffffffffffff1673ffffffffffffffffffffffffffffffffffffffff166c0100000000000000000000000002815260140184815260200183838082843782019150509450505050506040516020818303038152906040526040518082805190602001908083835b6020831015156107ed57805182526020820191506020810190506020830392506107c8565b6001836020036101000a038019825116818451168082178552505050505050905001915050604051809103902060001916826004015460001916145b151561083457600080fd5b8160010154826006015410151561091a5761085633600184600101540261173f565b151561086157600080fd5b60018260070160006101000a81548160ff0219169083151502179055507f67fa9cc3e4d0e1149807068cafc06619e43566e289268916bc4a2bc667b54a6c858360000160009054906101000a900473ffffffffffffffffffffffffffffffffffffffff168460010154604051808481526020018373ffffffffffffffffffffffffffffffffffffffff1673ffffffffffffffffffffffffffffffffffffffff168152602001828152602001935050505060405180910390a15b5050505050565b60058181548110151561093057fe5b90600052602060002090600a02016000915090508060000160009054906101000a900473ffffffffffffffffffffffffffffffffffffffff1690806001015490806002018054600181600116156101000203166002900480601f016020809104026020016040519081016040528092919081815260200182805460018160011615610100020316600290048015610a085780601f106109dd57610100808354040283529160200191610a08565b820191906000526020600020905b8154815290600101906020018083116109eb57829003601f168201915b505050505090806003018054600181600116156101000203166002900480601f016020809104026020016040519081016040528092919081815260200182805460018160011615610100020316600290048015610aa65780601f10610a7b57610100808354040283529160200191610aa6565b820191906000526020600020905b815481529060010190602001808311610a8957829003601f168201915b5050505050908060040154908060050154908060060154908060070160009054906101000a900460ff16908060070160019054906101000a900460ff1690806008015490508a565b60046020528060005260406000206000915090505481565b600360009054906101000a900460ff1681565b600080600587815481101515610b2b57fe5b90600052602060002090600a0201905085858585604051602001808573ffffffffffffffffffffffffffffffffffffffff1673ffffffffffffffffffffffffffffffffffffffff166c0100000000000000000000000002815260140184815260200183838082843782019150509450505050506040516020818303038152906040526040518082805190602001908083835b602083101515610be25780518252602082019150602081019050602083039250610bbd565b6001836020036101000a0380198251168184511680821785525050505050509050019150506040518091039020600019168160040154600019161491505095945050505050565b6000809054906101000a900473ffffffffffffffffffffffffffffffffffffffff1673ffffffffffffffffffffffffffffffffffffffff163373ffffffffffffffffffffffffffffffffffffffff16141515610c8457600080fd5b6000600360006101000a81548160ff0219169083151502179055507fd8b3bf9c320266e1c148e47e62cb34ce82ad60076e6f04a4ed3be8e69d21cef86000604051808215151515815260200191505060405180910390a1565b60025481565b600160009054906101000a900473ffffffffffffffffffffffffffffffffffffffff1673ffffffffffffffffffffffffffffffffffffffff163373ffffffffffffffffffffffffffffffffffffffff16141515610d3f57600080fd5b600160009054906101000a900473ffffffffffffffffffffffffffffffffffffffff1673ffffffffffffffffffffffffffffffffffffffff166000809054906101000a900473ffffffffffffffffffffffffffffffffffffffff1673ffffffffffffffffffffffffffffffffffffffff167f8be0079c531659141344cd1fd0a4f28419497f9722a3daafe3b4186f6b6457e060405160405180910390a3600160009054906101000a900473ffffffffffffffffffffffffffffffffffffffff166000806101000a81548173ffffffffffffffffffffffffffffffffffffffff021916908373ffffffffffffffffffffffffffffffffffffffff1602179055506000600160006101000a81548173ffffffffffffffffffffffffffffffffffffffff021916908373ffffffffffffffffffffffffffffffffffffffff160217905550565b6000809054906101000a900473ffffffffffffffffffffffffffffffffffffffff1681565b6000806001600360006101000a81548160ff02191690831515021790551515610ecf57600080fd5b600585815481101515610ede57fe5b90600052602060002090600a020190508060000160009054906101000a900473ffffffffffffffffffffffffffffffffffffffff1673ffffffffffffffffffffffffffffffffffffffff163373ffffffffffffffffffffffffffffffffffffffff1614158015610f5657508060060154816001015410155b8015610f775750600115158160070160019054906101000a900460ff161515145b8015610f895750610f88303461185b565b5b1515610f9457600080fd5b806009018054809190600101610faa9190611968565b91506060604051908101604052803373ffffffffffffffffffffffffffffffffffffffff16815260200134815260200185858080601f016020809104026020016040519081016040528093929190818152602001838380828437820191505050505050815250816009018381548110151561102157fe5b906000526020600020906003020160008201518160000160006101000a81548173ffffffffffffffffffffffffffffffffffffffff021916908373ffffffffffffffffffffffffffffffffffffffff16021790555060208201518160010155604082015181600201908051906020019061109c92919061199a565b509050506001820181600501819055503481600601600082825401925050819055504281600801819055507f9662b680260443ee5fb3c090055afd9612722df53cce4f9f33a880c5494418738533348787604051808681526020018573ffffffffffffffffffffffffffffffffffffffff1673ffffffffffffffffffffffffffffffffffffffff1681526020018481526020018060200182810382528484828181526020019250808284378201915050965050505050505060405180910390a180600501549150509392505050565b600160009054906101000a900473ffffffffffffffffffffffffffffffffffffffff1681565b6000806001600360006101000a81548160ff021916908315150217905515156111b957600080fd5b600580548091906001016111cd9190611a1a565b91506005828154811015156111de57fe5b90600052602060002090600a02019050338160000160006101000a81548173ffffffffffffffffffffffffffffffffffffffff021916908373ffffffffffffffffffffffffffffffffffffffff1602179055506001890281600101819055508787826002019190611250929190611a4c565b508585826003019190611264929190611a4c565b5033898585604051602001808573ffffffffffffffffffffffffffffffffffffffff1673ffffffffffffffffffffffffffffffffffffffff166c0100000000000000000000000002815260140184815260200183838082843782019150509450505050506040516020818303038152906040526040518082805190602001908083835b60208310151561130c57805182526020820191506020810190506020830392506112e7565b6001836020036101000a038019825116818451168082178552505050505050905001915050604051809103902081600401816000191690555060008160070160006101000a81548160ff02191690831515021790555060008160070160016101000a81548160ff0219169083151502179055507fad029e3588fde6752fb73c61133ae0d8a6a2a9abcdb9158b7ba5f17c9f133e37828260000160009054906101000a900473ffffffffffffffffffffffffffffffffffffffff168b846002018560070160019054906101000a900460ff16604051808681526020018573ffffffffffffffffffffffffffffffffffffffff1673ffffffffffffffffffffffffffffffffffffffff16815260200184815260200180602001831515151581526020018281038252848181546001816001161561010002031660029004815260200191508054600181600116156101000203166002900480156114ae5780601f10611483576101008083540402835291602001916114ae565b820191906000526020600020905b81548152906001019060200180831161149157829003601f168201915b5050965050505050505060405180910390a16001820160028190555081915050979650505050505050565b6000809054906101000a900473ffffffffffffffffffffffffffffffffffffffff1673ffffffffffffffffffffffffffffffffffffffff163373ffffffffffffffffffffffffffffffffffffffff1614151561153457600080fd5b80600160006101000a81548173ffffffffffffffffffffffffffffffffffffffff021916908373ffffffffffffffffffffffffffffffffffffffff16021790555050565b60008060009054906101000a900473ffffffffffffffffffffffffffffffffffffffff1673ffffffffffffffffffffffffffffffffffffffff163373ffffffffffffffffffffffffffffffffffffffff161415156115d557600080fd5b6005828154811015156115e457fe5b90600052602060002090600a02019050600015158160070160019054906101000a900460ff16151514151561161857600080fd5b60018160070160016101000a81548160ff0219169083151502179055507f5acfcecb3b608e8468b0b3a6474e8e3fa7649b91bb3e386348e9be8bf4d0c24282600360009054906101000a900460ff1660405180838152602001821515151581526020019250505060405180910390a15050565b6000809054906101000a900473ffffffffffffffffffffffffffffffffffffffff1673ffffffffffffffffffffffffffffffffffffffff163373ffffffffffffffffffffffffffffffffffffffff161415156116e657600080fd5b6001600360006101000a81548160ff0219169083151502179055507fd8b3bf9c320266e1c148e47e62cb34ce82ad60076e6f04a4ed3be8e69d21cef86001604051808215151515815260200191505060405180910390a1565b6000808211151561174f57600080fd5b611779823073ffffffffffffffffffffffffffffffffffffffff163161193090919063ffffffff16565b506117a4828473ffffffffffffffffffffffffffffffffffffffff163161194c90919063ffffffff16565b508273ffffffffffffffffffffffffffffffffffffffff166108fc839081150290604051600060405180830381858888f193505050501580156117eb573d6000803e3d6000fd5b508273ffffffffffffffffffffffffffffffffffffffff163073ffffffffffffffffffffffffffffffffffffffff167fddf252ad1be2c89b69c2b068fc378daa952ba7f163c4a11628f55a4df523b3ef846040518082815260200191505060405180910390a36001905092915050565b6000808211151561186b57600080fd5b611895823373ffffffffffffffffffffffffffffffffffffffff163161193090919063ffffffff16565b506118c0828473ffffffffffffffffffffffffffffffffffffffff163161194c90919063ffffffff16565b508273ffffffffffffffffffffffffffffffffffffffff163373ffffffffffffffffffffffffffffffffffffffff167fddf252ad1be2c89b69c2b068fc378daa952ba7f163c4a11628f55a4df523b3ef846040518082815260200191505060405180910390a36001905092915050565b600082821115151561194157600080fd5b818303905092915050565b6000818301905082811015151561196257600080fd5b92915050565b815481835581811115611995576003028160030283600052602060002091820191016119949190611acc565b5b505050565b828054600181600116156101000203166002900490600052602060002090601f016020900481019282601f106119db57805160ff1916838001178555611a09565b82800160010185558215611a09579182015b82811115611a085782518255916020019190600101906119ed565b5b509050611a169190611b2a565b5090565b815481835581811115611a4757600a0281600a028360005260206000209182019101611a469190611b4f565b5b505050565b828054600181600116156101000203166002900490600052602060002090601f016020900481019282601f10611a8d57803560ff1916838001178555611abb565b82800160010185558215611abb579182015b82811115611aba578235825591602001919060010190611a9f565b5b509050611ac89190611b2a565b5090565b611b2791905b80821115611b2357600080820160006101000a81549073ffffffffffffffffffffffffffffffffffffffff02191690556001820160009055600282016000611b1a9190611c15565b50600301611ad2565b5090565b90565b611b4c91905b80821115611b48576000816000905550600101611b30565b5090565b90565b611c1291905b80821115611c0e57600080820160006101000a81549073ffffffffffffffffffffffffffffffffffffffff02191690556001820160009055600282016000611b9d9190611c15565b600382016000611bad9190611c15565b6004820160009055600582016000905560068201600090556007820160006101000a81549060ff02191690556007820160016101000a81549060ff02191690556008820160009055600982016000611c059190611c5d565b50600a01611b55565b5090565b90565b50805460018160011615610100020316600290046000825580601f10611c3b5750611c5a565b601f016020900490600052602060002090810190611c599190611b2a565b5b50565b5080546000825560030290600052602060002090810190611c7e9190611acc565b505600a165627a7a72305820a401c72102b3269e711af918b7ff8960cd033600e76d58ab851658faa39856320029",
  "source": "pragma solidity ^0.4.24;\n\nimport './library/SafeMath.sol';\nimport './basic/Owned.sol';\n\ncontract Token {\n    using SafeMath for uint;\n\n    event Transfer(address indexed _from, address indexed _to, uint _tokens);\n\n    // ------------------------------------------------------------------------\n    // Transfer the balance from token owner's account to `to` account\n    // - Owner's account must have sufficient balance to transfer\n    // ------------------------------------------------------------------------\n    function transfer(address to, uint tokens) internal returns (bool success) {\n        require(tokens > 0);\n\n        msg.sender.balance.sub(tokens);\n        to.balance.add(tokens);\n\n        emit Transfer(msg.sender, to, tokens);\n        return true;\n    }\n\n    // ------------------------------------------------------------------------\n    // Transfer `tokens` from contract to the `to` account\n    //\n    // The calling account must already have sufficient tokens approve(...)-d\n    // for spending from the `from` account and\n    // - Contract must have sufficient balance to transfer\n    // - Spender must have sufficient allowance to transfer\n    // ------------------------------------------------------------------------\n    function transferDonation(address to, uint tokens) internal returns (bool success) {\n        require(tokens > 0);\n\n        address(this).balance.sub(tokens);\n        to.balance.add(tokens);\n        to.transfer(tokens);\n\n        emit Transfer(this, to, tokens);\n        return true;\n    }\n}\n\ncontract Benefactio is Token, Owned {\n    uint public numProjects;\n    bool public status;\n\n    mapping (address => uint) public actorId;\n\n    Project[] public projects;\n\n    event ProjectAdded(uint projectId, address recipient, uint amount, string name, bool approved);\n    event ProjectClosed(uint projectId, address recipient, uint amount);\n    event ProjectStatus(uint projectId, bool approved);\n    event NewDonation(uint projectId, address benefactor, uint amount, string message);\n    event ActorsChanged(address actor, bool isActor);\n    event PlatformStatus(bool status);\n\n    modifier onlyActor(uint projectId) {\n        require (msg.sender == projects[projectId].recipient);\n        _;\n    }\n\n    struct Project {\n        address recipient;\n        uint amount;\n        string name;\n        string description;\n        bytes32 projectHash;\n        uint numberOfDonations;\n        uint currentAmount;\n        bool closed;\n        bool approved;\n        uint lastDonation;\n\n        Donation[] donations;\n    }\n\n    struct Donation {\n        address benefactor;\n        uint amount;\n        string message;\n    }\n\n    constructor() public {\n        close();\n    }\n\n    function open() onlyOwner external {\n        status = true;\n        emit PlatformStatus(true);\n    }\n\n    function close() onlyOwner public {\n        status = false;\n        emit PlatformStatus(false);\n    }\n\n    function newProject(\n        uint amount,\n        string projectName,\n        string projectDescription,\n        bytes transactionBytecode\n    ) external returns (uint projectId) {\n        require(status = true);\n\n        projectId = projects.length++;\n\n        Project storage p = projects[projectId];\n        p.recipient = msg.sender;\n        p.amount = amount * 1 wei;\n        p.name = projectName;\n        p.description = projectDescription;\n        p.projectHash = keccak256(abi.encodePacked(msg.sender, amount, transactionBytecode));\n        p.closed = false;\n        p.approved = false;\n\n        emit ProjectAdded(projectId, p.recipient, amount, p.name, p.approved);\n        numProjects = projectId + 1;\n\n        return projectId;\n    }\n\n    function projectApprove(uint projectId) onlyOwner external {\n        Project storage p = projects[projectId];\n\n        require(p.approved == false);\n        p.approved = true;\n\n        emit ProjectStatus(projectId, status);\n    }\n\n    function checkProjectCode (\n        uint projectId,\n        address beneficiary,\n        uint amount,\n        bytes transactionBytecode\n    ) constant external returns (bool code) {\n        Project storage p = projects[projectId];\n        return p.projectHash == keccak256(abi.encodePacked(beneficiary, amount, transactionBytecode));\n    }\n\n    function makeDonation(\n        uint projectId,\n        string supportMessage\n    ) external payable returns (uint donationId) {\n        require(status = true);\n        Project storage p = projects[projectId];\n\n        require(\n            msg.sender != p.recipient &&\n            p.amount >= p.currentAmount &&\n            p.approved == true &&\n            transfer(this, msg.value)\n        );\n\n        donationId = p.donations.length++;\n        p.donations[donationId] = Donation({benefactor: msg.sender, amount: msg.value, message: supportMessage});\n        p.numberOfDonations = donationId + 1;\n        p.currentAmount += msg.value;\n        p.lastDonation = block.timestamp;\n\n        emit NewDonation(projectId, msg.sender, msg.value, supportMessage);\n        return p.numberOfDonations;\n    }\n\n    function retrieveDonations(uint projectId, bytes transactionBytecode) external onlyActor(projectId) {\n        require(status = true);\n\n        Project storage p = projects[projectId];\n\n        require(\n            p.closed == false &&\n            now > p.lastDonation + uint8(90) && // 6 blocks between last donation and retrieve\n            p.projectHash == keccak256(abi.encodePacked(p.recipient, p.amount, transactionBytecode))\n        );\n\n        if (p.currentAmount >= p.amount) {\n            require(transferDonation(msg.sender, p.amount * 1 wei));\n\n            p.closed = true;\n            emit ProjectClosed(projectId, p.recipient, p.amount);\n        }\n    }\n\n    // fallback just in case\n    function () public {\n        revert();\n    }\n}\n",
  "sourcePath": "/home/lutangar/workspace/lepetitbloc/benefact.io/contracts/Benefactio.sol",
  "compiler": {
    "name": "solc",
    "version": "0.4.24+commit.e67f0147.Emscripten.clang"
  },
  "schemaVersion": "2.0.1",
  "updatedAt": "2018-08-27T07:00:01.525Z"
}