{
  "contractName": "Benefactio",
  "abi": [
    {
      "constant": true,
      "inputs": [
        {
          "name": "",
          "type": "uint256"
        }
      ],
      "name": "projects",
      "outputs": [
        {
          "name": "recipient",
          "type": "address"
        },
        {
          "name": "amount",
          "type": "uint256"
        },
        {
          "name": "name",
          "type": "string"
        },
        {
          "name": "description",
          "type": "string"
        },
        {
          "name": "projectHash",
          "type": "bytes32"
        },
        {
          "name": "numberOfDonations",
          "type": "uint256"
        },
        {
          "name": "currentAmount",
          "type": "uint256"
        },
        {
          "name": "closed",
          "type": "bool"
        },
        {
          "name": "approved",
          "type": "bool"
        },
        {
          "name": "lastDonation",
          "type": "uint256"
        }
      ],
      "payable": false,
      "stateMutability": "view",
      "type": "function"
    },
    {
      "constant": true,
      "inputs": [
        {
          "name": "",
          "type": "address"
        }
      ],
      "name": "actorId",
      "outputs": [
        {
          "name": "",
          "type": "uint256"
        }
      ],
      "payable": false,
      "stateMutability": "view",
      "type": "function"
    },
    {
      "constant": true,
      "inputs": [],
      "name": "status",
      "outputs": [
        {
          "name": "",
          "type": "bool"
        }
      ],
      "payable": false,
      "stateMutability": "view",
      "type": "function"
    },
    {
      "constant": true,
      "inputs": [],
      "name": "numProjects",
      "outputs": [
        {
          "name": "",
          "type": "uint256"
        }
      ],
      "payable": false,
      "stateMutability": "view",
      "type": "function"
    },
    {
      "constant": false,
      "inputs": [],
      "name": "acceptOwnership",
      "outputs": [],
      "payable": false,
      "stateMutability": "nonpayable",
      "type": "function"
    },
    {
      "constant": true,
      "inputs": [],
      "name": "owner",
      "outputs": [
        {
          "name": "",
          "type": "address"
        }
      ],
      "payable": false,
      "stateMutability": "view",
      "type": "function"
    },
    {
      "constant": true,
      "inputs": [],
      "name": "newOwner",
      "outputs": [
        {
          "name": "",
          "type": "address"
        }
      ],
      "payable": false,
      "stateMutability": "view",
      "type": "function"
    },
    {
      "constant": false,
      "inputs": [
        {
          "name": "_newOwner",
          "type": "address"
        }
      ],
      "name": "transferOwnership",
      "outputs": [],
      "payable": false,
      "stateMutability": "nonpayable",
      "type": "function"
    },
    {
      "inputs": [],
      "payable": false,
      "stateMutability": "nonpayable",
      "type": "constructor"
    },
    {
      "payable": false,
      "stateMutability": "nonpayable",
      "type": "fallback"
    },
    {
      "anonymous": false,
      "inputs": [
        {
          "indexed": false,
          "name": "projectId",
          "type": "uint256"
        },
        {
          "indexed": false,
          "name": "recipient",
          "type": "address"
        },
        {
          "indexed": false,
          "name": "amount",
          "type": "uint256"
        },
        {
          "indexed": false,
          "name": "name",
          "type": "string"
        },
        {
          "indexed": false,
          "name": "approved",
          "type": "bool"
        }
      ],
      "name": "ProjectAdded",
      "type": "event"
    },
    {
      "anonymous": false,
      "inputs": [
        {
          "indexed": false,
          "name": "projectId",
          "type": "uint256"
        },
        {
          "indexed": false,
          "name": "recipient",
          "type": "address"
        },
        {
          "indexed": false,
          "name": "amount",
          "type": "uint256"
        }
      ],
      "name": "ProjectClosed",
      "type": "event"
    },
    {
      "anonymous": false,
      "inputs": [
        {
          "indexed": false,
          "name": "projectId",
          "type": "uint256"
        },
        {
          "indexed": false,
          "name": "approved",
          "type": "bool"
        }
      ],
      "name": "ProjectStatus",
      "type": "event"
    },
    {
      "anonymous": false,
      "inputs": [
        {
          "indexed": false,
          "name": "donationId",
          "type": "uint256"
        },
        {
          "indexed": false,
          "name": "projectId",
          "type": "uint256"
        },
        {
          "indexed": false,
          "name": "benefactor",
          "type": "address"
        },
        {
          "indexed": false,
          "name": "amount",
          "type": "uint256"
        },
        {
          "indexed": false,
          "name": "message",
          "type": "string"
        }
      ],
      "name": "NewDonation",
      "type": "event"
    },
    {
      "anonymous": false,
      "inputs": [
        {
          "indexed": false,
          "name": "actor",
          "type": "address"
        },
        {
          "indexed": false,
          "name": "isActor",
          "type": "bool"
        }
      ],
      "name": "ActorsChanged",
      "type": "event"
    },
    {
      "anonymous": false,
      "inputs": [
        {
          "indexed": false,
          "name": "status",
          "type": "bool"
        }
      ],
      "name": "PlatformStatus",
      "type": "event"
    },
    {
      "anonymous": false,
      "inputs": [
        {
          "indexed": true,
          "name": "_from",
          "type": "address"
        },
        {
          "indexed": true,
          "name": "_to",
          "type": "address"
        }
      ],
      "name": "OwnershipTransferred",
      "type": "event"
    },
    {
      "anonymous": false,
      "inputs": [
        {
          "indexed": true,
          "name": "_from",
          "type": "address"
        },
        {
          "indexed": true,
          "name": "_to",
          "type": "address"
        },
        {
          "indexed": false,
          "name": "_tokens",
          "type": "uint256"
        }
      ],
      "name": "Transfer",
      "type": "event"
    },
    {
      "constant": false,
      "inputs": [],
      "name": "open",
      "outputs": [],
      "payable": false,
      "stateMutability": "nonpayable",
      "type": "function"
    },
    {
      "constant": false,
      "inputs": [],
      "name": "close",
      "outputs": [],
      "payable": false,
      "stateMutability": "nonpayable",
      "type": "function"
    },
    {
      "constant": false,
      "inputs": [
        {
          "name": "amount",
          "type": "uint256"
        },
        {
          "name": "projectName",
          "type": "string"
        },
        {
          "name": "projectDescription",
          "type": "string"
        },
        {
          "name": "transactionBytecode",
          "type": "bytes"
        }
      ],
      "name": "newProject",
      "outputs": [
        {
          "name": "projectId",
          "type": "uint256"
        }
      ],
      "payable": false,
      "stateMutability": "nonpayable",
      "type": "function"
    },
    {
      "constant": false,
      "inputs": [
        {
          "name": "projectId",
          "type": "uint256"
        }
      ],
      "name": "projectApprove",
      "outputs": [],
      "payable": false,
      "stateMutability": "nonpayable",
      "type": "function"
    },
    {
      "constant": true,
      "inputs": [
        {
          "name": "projectId",
          "type": "uint256"
        },
        {
          "name": "beneficiary",
          "type": "address"
        },
        {
          "name": "amount",
          "type": "uint256"
        },
        {
          "name": "transactionBytecode",
          "type": "bytes"
        }
      ],
      "name": "checkProjectCode",
      "outputs": [
        {
          "name": "code",
          "type": "bool"
        }
      ],
      "payable": false,
      "stateMutability": "view",
      "type": "function"
    },
    {
      "constant": false,
      "inputs": [
        {
          "name": "projectId",
          "type": "uint256"
        },
        {
          "name": "supportMessage",
          "type": "string"
        }
      ],
      "name": "makeDonation",
      "outputs": [
        {
          "name": "donationId",
          "type": "uint256"
        }
      ],
      "payable": true,
      "stateMutability": "payable",
      "type": "function"
    },
    {
      "constant": true,
      "inputs": [
        {
          "name": "projectId",
          "type": "uint256"
        }
      ],
      "name": "getProjectDonationsCount",
      "outputs": [
        {
          "name": "",
          "type": "uint256"
        }
      ],
      "payable": false,
      "stateMutability": "view",
      "type": "function"
    },
    {
      "constant": true,
      "inputs": [
        {
          "name": "projectId",
          "type": "uint256"
        },
        {
          "name": "donationId",
          "type": "uint256"
        }
      ],
      "name": "getProjectDonation",
      "outputs": [
        {
          "name": "benefactor",
          "type": "address"
        },
        {
          "name": "amount",
          "type": "uint256"
        },
        {
          "name": "message",
          "type": "string"
        }
      ],
      "payable": false,
      "stateMutability": "view",
      "type": "function"
    },
    {
      "constant": false,
      "inputs": [
        {
          "name": "projectId",
          "type": "uint256"
        },
        {
          "name": "transactionBytecode",
          "type": "bytes"
        }
      ],
      "name": "retrieveDonations",
      "outputs": [],
      "payable": false,
      "stateMutability": "nonpayable",
      "type": "function"
    }
  ],
  "bytecode": "0x608060405234801561001057600080fd5b50336000806101000a81548173ffffffffffffffffffffffffffffffffffffffff021916908373ffffffffffffffffffffffffffffffffffffffff16021790555061006861006d640100000000026401000000009004565b610121565b6000809054906101000a900473ffffffffffffffffffffffffffffffffffffffff1673ffffffffffffffffffffffffffffffffffffffff163373ffffffffffffffffffffffffffffffffffffffff161415156100c857600080fd5b6000600360006101000a81548160ff0219169083151502179055507fd8b3bf9c320266e1c148e47e62cb34ce82ad60076e6f04a4ed3be8e69d21cef86000604051808215151515815260200191505060405180910390a1565b611f67806101306000396000f3006080604052600436106100f1576000357c0100000000000000000000000000000000000000000000000000000000900463ffffffff16806304aef26014610103578063107046bd1461014857806315375f0d146102ce5780631a15c0c41461030f578063200d2ed21461036657806337f4e3511461039557806343d726d61461041c5780635a067baa146104335780636497585b1461045e57806379ba5097146105485780638da5cb5b1461055f578063aec8d859146105b6578063d4ee1d9014610602578063e3103a3b14610659578063f2fde38b146106e2578063f4f8609c14610725578063fcfff16f14610752575b3480156100fd57600080fd5b50600080fd5b34801561010f57600080fd5b5061014660048036038101908080359060200190929190803590602001908201803590602001919091929391929390505050610769565b005b34801561015457600080fd5b5061017360048036038101908080359060200190929190505050610a62565b604051808b73ffffffffffffffffffffffffffffffffffffffff1673ffffffffffffffffffffffffffffffffffffffff1681526020018a815260200180602001806020018960001916600019168152602001888152602001878152602001861515151581526020018515151515815260200184815260200183810383528b818151815260200191508051906020019080838360005b83811015610223578082015181840152602081019050610208565b50505050905090810190601f1680156102505780820380516001836020036101000a031916815260200191505b5083810382528a818151815260200191508051906020019080838360005b8381101561028957808201518184015260208101905061026e565b50505050905090810190601f1680156102b65780820380516001836020036101000a031916815260200191505b509c5050505050505050505050505060405180910390f35b3480156102da57600080fd5b506102f960048036038101908080359060200190929190505050610c2f565b6040518082815260200191505060405180910390f35b34801561031b57600080fd5b50610350600480360381019080803573ffffffffffffffffffffffffffffffffffffffff169060200190929190505050610c61565b6040518082815260200191505060405180910390f35b34801561037257600080fd5b5061037b610c79565b604051808215151515815260200191505060405180910390f35b3480156103a157600080fd5b5061040260048036038101908080359060200190929190803573ffffffffffffffffffffffffffffffffffffffff16906020019092919080359060200190929190803590602001908201803590602001919091929391929390505050610c8c565b604051808215151515815260200191505060405180910390f35b34801561042857600080fd5b50610431610d9c565b005b34801561043f57600080fd5b50610448610e50565b6040518082815260200191505060405180910390f35b34801561046a57600080fd5b506104936004803603810190808035906020019092919080359060200190929190505050610e56565b604051808473ffffffffffffffffffffffffffffffffffffffff1673ffffffffffffffffffffffffffffffffffffffff16815260200183815260200180602001828103825283818151815260200191508051906020019080838360005b8381101561050b5780820151818401526020810190506104f0565b50505050905090810190601f1680156105385780820380516001836020036101000a031916815260200191505b5094505050505060405180910390f35b34801561055457600080fd5b5061055d610f74565b005b34801561056b57600080fd5b50610574611113565b604051808273ffffffffffffffffffffffffffffffffffffffff1673ffffffffffffffffffffffffffffffffffffffff16815260200191505060405180910390f35b6105ec60048036038101908080359060200190929190803590602001908201803590602001919091929391929390505050611138565b6040518082815260200191505060405180910390f35b34801561060e57600080fd5b50610617611425565b604051808273ffffffffffffffffffffffffffffffffffffffff1673ffffffffffffffffffffffffffffffffffffffff16815260200191505060405180910390f35b34801561066557600080fd5b506106cc6004803603810190808035906020019092919080359060200190820180359060200191909192939192939080359060200190820180359060200191909192939192939080359060200190820180359060200191909192939192939050505061144b565b6040518082815260200191505060405180910390f35b3480156106ee57600080fd5b50610723600480360381019080803573ffffffffffffffffffffffffffffffffffffffff169060200190929190505050611793565b005b34801561073157600080fd5b5061075060048036038101908080359060200190929190505050611832565b005b34801561075e57600080fd5b50610767611945565b005b60008360058181548110151561077b57fe5b90600052602060002090600a020160000160009054906101000a900473ffffffffffffffffffffffffffffffffffffffff1673ffffffffffffffffffffffffffffffffffffffff163373ffffffffffffffffffffffffffffffffffffffff161415156107e657600080fd5b6001600360006101000a81548160ff0219169083151502179055151561080b57600080fd5b60058581548110151561081a57fe5b90600052602060002090600a02019150600015158260070160009054906101000a900460ff1615151480156108585750605a60ff1682600801540142115b801561096a57508160000160009054906101000a900473ffffffffffffffffffffffffffffffffffffffff1682600101548585604051602001808573ffffffffffffffffffffffffffffffffffffffff1673ffffffffffffffffffffffffffffffffffffffff166c0100000000000000000000000002815260140184815260200183838082843782019150509450505050506040516020818303038152906040526040518082805190602001908083835b60208310151561092e5780518252602082019150602081019050602083039250610909565b6001836020036101000a038019825116818451168082178552505050505050905001915050604051809103902060001916826004015460001916145b151561097557600080fd5b81600101548260060154101515610a5b576109973360018460010154026119f9565b15156109a257600080fd5b60018260070160006101000a81548160ff0219169083151502179055507f67fa9cc3e4d0e1149807068cafc06619e43566e289268916bc4a2bc667b54a6c858360000160009054906101000a900473ffffffffffffffffffffffffffffffffffffffff168460010154604051808481526020018373ffffffffffffffffffffffffffffffffffffffff1673ffffffffffffffffffffffffffffffffffffffff168152602001828152602001935050505060405180910390a15b5050505050565b600581815481101515610a7157fe5b90600052602060002090600a02016000915090508060000160009054906101000a900473ffffffffffffffffffffffffffffffffffffffff1690806001015490806002018054600181600116156101000203166002900480601f016020809104026020016040519081016040528092919081815260200182805460018160011615610100020316600290048015610b495780601f10610b1e57610100808354040283529160200191610b49565b820191906000526020600020905b815481529060010190602001808311610b2c57829003601f168201915b505050505090806003018054600181600116156101000203166002900480601f016020809104026020016040519081016040528092919081815260200182805460018160011615610100020316600290048015610be75780601f10610bbc57610100808354040283529160200191610be7565b820191906000526020600020905b815481529060010190602001808311610bca57829003601f168201915b5050505050908060040154908060050154908060060154908060070160009054906101000a900460ff16908060070160019054906101000a900460ff1690806008015490508a565b600080600583815481101515610c4157fe5b90600052602060002090600a020190508060090180549050915050919050565b60046020528060005260406000206000915090505481565b600360009054906101000a900460ff1681565b600080600587815481101515610c9e57fe5b90600052602060002090600a0201905085858585604051602001808573ffffffffffffffffffffffffffffffffffffffff1673ffffffffffffffffffffffffffffffffffffffff166c0100000000000000000000000002815260140184815260200183838082843782019150509450505050506040516020818303038152906040526040518082805190602001908083835b602083101515610d555780518252602082019150602081019050602083039250610d30565b6001836020036101000a0380198251168184511680821785525050505050509050019150506040518091039020600019168160040154600019161491505095945050505050565b6000809054906101000a900473ffffffffffffffffffffffffffffffffffffffff1673ffffffffffffffffffffffffffffffffffffffff163373ffffffffffffffffffffffffffffffffffffffff16141515610df757600080fd5b6000600360006101000a81548160ff0219169083151502179055507fd8b3bf9c320266e1c148e47e62cb34ce82ad60076e6f04a4ed3be8e69d21cef86000604051808215151515815260200191505060405180910390a1565b60025481565b6000806060600080600587815481101515610e6d57fe5b90600052602060002090600a020191508160090186815481101515610e8e57fe5b906000526020600020906003020190508060000160009054906101000a900473ffffffffffffffffffffffffffffffffffffffff16945080600101549350806002018054600181600116156101000203166002900480601f016020809104026020016040519081016040528092919081815260200182805460018160011615610100020316600290048015610f645780601f10610f3957610100808354040283529160200191610f64565b820191906000526020600020905b815481529060010190602001808311610f4757829003601f168201915b5050505050925050509250925092565b600160009054906101000a900473ffffffffffffffffffffffffffffffffffffffff1673ffffffffffffffffffffffffffffffffffffffff163373ffffffffffffffffffffffffffffffffffffffff16141515610fd057600080fd5b600160009054906101000a900473ffffffffffffffffffffffffffffffffffffffff1673ffffffffffffffffffffffffffffffffffffffff166000809054906101000a900473ffffffffffffffffffffffffffffffffffffffff1673ffffffffffffffffffffffffffffffffffffffff167f8be0079c531659141344cd1fd0a4f28419497f9722a3daafe3b4186f6b6457e060405160405180910390a3600160009054906101000a900473ffffffffffffffffffffffffffffffffffffffff166000806101000a81548173ffffffffffffffffffffffffffffffffffffffff021916908373ffffffffffffffffffffffffffffffffffffffff1602179055506000600160006101000a81548173ffffffffffffffffffffffffffffffffffffffff021916908373ffffffffffffffffffffffffffffffffffffffff160217905550565b6000809054906101000a900473ffffffffffffffffffffffffffffffffffffffff1681565b6000806001600360006101000a81548160ff0219169083151502179055151561116057600080fd5b60058581548110151561116f57fe5b90600052602060002090600a020190508060000160009054906101000a900473ffffffffffffffffffffffffffffffffffffffff1673ffffffffffffffffffffffffffffffffffffffff163373ffffffffffffffffffffffffffffffffffffffff16141580156111e757508060060154816001015410155b80156112085750600115158160070160019054906101000a900460ff161515145b80156112295750600015158160070160009054906101000a900460ff161515145b801561123b575061123a3034611b15565b5b151561124657600080fd5b80600901805480919060010161125c9190611c22565b91506060604051908101604052803373ffffffffffffffffffffffffffffffffffffffff16815260200134815260200185858080601f01602080910402602001604051908101604052809392919081815260200183838082843782019150505050505081525081600901838154811015156112d357fe5b906000526020600020906003020160008201518160000160006101000a81548173ffffffffffffffffffffffffffffffffffffffff021916908373ffffffffffffffffffffffffffffffffffffffff16021790555060208201518160010155604082015181600201908051906020019061134e929190611c54565b509050506001820181600501819055503481600601600082825401925050819055504281600801819055507f3c3b44e1ab33da12078cac96e7aa5a3706fe93a9df720b71e866a7c535cb525a828633348888604051808781526020018681526020018573ffffffffffffffffffffffffffffffffffffffff1673ffffffffffffffffffffffffffffffffffffffff168152602001848152602001806020018281038252848482818152602001925080828437820191505097505050505050505060405180910390a180600501549150509392505050565b600160009054906101000a900473ffffffffffffffffffffffffffffffffffffffff1681565b6000806001600360006101000a81548160ff0219169083151502179055151561147357600080fd5b600580548091906001016114879190611cd4565b915060058281548110151561149857fe5b90600052602060002090600a02019050338160000160006101000a81548173ffffffffffffffffffffffffffffffffffffffff021916908373ffffffffffffffffffffffffffffffffffffffff160217905550600189028160010181905550878782600201919061150a929190611d06565b50858582600301919061151e929190611d06565b5033898585604051602001808573ffffffffffffffffffffffffffffffffffffffff1673ffffffffffffffffffffffffffffffffffffffff166c0100000000000000000000000002815260140184815260200183838082843782019150509450505050506040516020818303038152906040526040518082805190602001908083835b6020831015156115c657805182526020820191506020810190506020830392506115a1565b6001836020036101000a038019825116818451168082178552505050505050905001915050604051809103902081600401816000191690555060008160070160006101000a81548160ff02191690831515021790555060008160070160016101000a81548160ff0219169083151502179055507fad029e3588fde6752fb73c61133ae0d8a6a2a9abcdb9158b7ba5f17c9f133e37828260000160009054906101000a900473ffffffffffffffffffffffffffffffffffffffff168b846002018560070160019054906101000a900460ff16604051808681526020018573ffffffffffffffffffffffffffffffffffffffff1673ffffffffffffffffffffffffffffffffffffffff16815260200184815260200180602001831515151581526020018281038252848181546001816001161561010002031660029004815260200191508054600181600116156101000203166002900480156117685780601f1061173d57610100808354040283529160200191611768565b820191906000526020600020905b81548152906001019060200180831161174b57829003601f168201915b5050965050505050505060405180910390a16001820160028190555081915050979650505050505050565b6000809054906101000a900473ffffffffffffffffffffffffffffffffffffffff1673ffffffffffffffffffffffffffffffffffffffff163373ffffffffffffffffffffffffffffffffffffffff161415156117ee57600080fd5b80600160006101000a81548173ffffffffffffffffffffffffffffffffffffffff021916908373ffffffffffffffffffffffffffffffffffffffff16021790555050565b60008060009054906101000a900473ffffffffffffffffffffffffffffffffffffffff1673ffffffffffffffffffffffffffffffffffffffff163373ffffffffffffffffffffffffffffffffffffffff1614151561188f57600080fd5b60058281548110151561189e57fe5b90600052602060002090600a02019050600015158160070160019054906101000a900460ff1615151415156118d257600080fd5b60018160070160016101000a81548160ff0219169083151502179055507f5acfcecb3b608e8468b0b3a6474e8e3fa7649b91bb3e386348e9be8bf4d0c24282600360009054906101000a900460ff1660405180838152602001821515151581526020019250505060405180910390a15050565b6000809054906101000a900473ffffffffffffffffffffffffffffffffffffffff1673ffffffffffffffffffffffffffffffffffffffff163373ffffffffffffffffffffffffffffffffffffffff161415156119a057600080fd5b6001600360006101000a81548160ff0219169083151502179055507fd8b3bf9c320266e1c148e47e62cb34ce82ad60076e6f04a4ed3be8e69d21cef86001604051808215151515815260200191505060405180910390a1565b60008082111515611a0957600080fd5b611a33823073ffffffffffffffffffffffffffffffffffffffff1631611bea90919063ffffffff16565b50611a5e828473ffffffffffffffffffffffffffffffffffffffff1631611c0690919063ffffffff16565b508273ffffffffffffffffffffffffffffffffffffffff166108fc839081150290604051600060405180830381858888f19350505050158015611aa5573d6000803e3d6000fd5b508273ffffffffffffffffffffffffffffffffffffffff163073ffffffffffffffffffffffffffffffffffffffff167fddf252ad1be2c89b69c2b068fc378daa952ba7f163c4a11628f55a4df523b3ef846040518082815260200191505060405180910390a36001905092915050565b60008082111515611b2557600080fd5b611b4f823373ffffffffffffffffffffffffffffffffffffffff1631611bea90919063ffffffff16565b50611b7a828473ffffffffffffffffffffffffffffffffffffffff1631611c0690919063ffffffff16565b508273ffffffffffffffffffffffffffffffffffffffff163373ffffffffffffffffffffffffffffffffffffffff167fddf252ad1be2c89b69c2b068fc378daa952ba7f163c4a11628f55a4df523b3ef846040518082815260200191505060405180910390a36001905092915050565b6000828211151515611bfb57600080fd5b818303905092915050565b60008183019050828110151515611c1c57600080fd5b92915050565b815481835581811115611c4f57600302816003028360005260206000209182019101611c4e9190611d86565b5b505050565b828054600181600116156101000203166002900490600052602060002090601f016020900481019282601f10611c9557805160ff1916838001178555611cc3565b82800160010185558215611cc3579182015b82811115611cc2578251825591602001919060010190611ca7565b5b509050611cd09190611de4565b5090565b815481835581811115611d0157600a0281600a028360005260206000209182019101611d009190611e09565b5b505050565b828054600181600116156101000203166002900490600052602060002090601f016020900481019282601f10611d4757803560ff1916838001178555611d75565b82800160010185558215611d75579182015b82811115611d74578235825591602001919060010190611d59565b5b509050611d829190611de4565b5090565b611de191905b80821115611ddd57600080820160006101000a81549073ffffffffffffffffffffffffffffffffffffffff02191690556001820160009055600282016000611dd49190611ecf565b50600301611d8c565b5090565b90565b611e0691905b80821115611e02576000816000905550600101611dea565b5090565b90565b611ecc91905b80821115611ec857600080820160006101000a81549073ffffffffffffffffffffffffffffffffffffffff02191690556001820160009055600282016000611e579190611ecf565b600382016000611e679190611ecf565b6004820160009055600582016000905560068201600090556007820160006101000a81549060ff02191690556007820160016101000a81549060ff02191690556008820160009055600982016000611ebf9190611f17565b50600a01611e0f565b5090565b90565b50805460018160011615610100020316600290046000825580601f10611ef55750611f14565b601f016020900490600052602060002090810190611f139190611de4565b5b50565b5080546000825560030290600052602060002090810190611f389190611d86565b505600a165627a7a723058209944b1c4843a75b52d3c85b43dbd49849a8e9546435eb65f255e714997e66a410029",
  "source": "pragma solidity ^0.4.24;\n\nimport './library/SafeMath.sol';\nimport './Owned.sol';\nimport './Token.sol';\n\ncontract Benefactio is Token, Owned {\n    uint public numProjects;\n    bool public status;\n\n    mapping (address => uint) public actorId;\n\n    Project[] public projects;\n\n    event ProjectAdded(uint projectId, address recipient, uint amount, string name, bool approved);\n    event ProjectClosed(uint projectId, address recipient, uint amount);\n    event ProjectStatus(uint projectId, bool approved);\n    event NewDonation(uint donationId, uint projectId, address benefactor, uint amount, string message);\n    event ActorsChanged(address actor, bool isActor);\n    event PlatformStatus(bool status);\n\n    modifier onlyActor(uint projectId) {\n        require (msg.sender == projects[projectId].recipient);\n        _;\n    }\n\n    struct Project {\n        address recipient;\n        uint amount;\n        string name;\n        string description;\n        bytes32 projectHash;\n        uint numberOfDonations;\n        uint currentAmount;\n        bool closed;\n        bool approved;\n        uint lastDonation;\n\n        Donation[] donations;\n    }\n\n    struct Donation {\n        address benefactor;\n        uint amount;\n        string message;\n    }\n\n    constructor() public {\n        // the platform is closed by default\n        close();\n    }\n\n    // The platform can be opened or closed to business, forbidding methods that write to the contract's storage\n    function open() onlyOwner external {\n        status = true;\n        emit PlatformStatus(true);\n    }\n\n    function close() onlyOwner public {\n        status = false;\n        emit PlatformStatus(false);\n    }\n\n    function newProject(\n        uint amount,\n        string projectName,\n        string projectDescription,\n        bytes transactionBytecode\n    ) external returns (uint projectId) {\n        // the platform must be open for business\n        require(status = true);\n\n        projectId = projects.length++;\n\n        Project storage p = projects[projectId];\n        p.recipient = msg.sender;\n        p.amount = amount * 1 wei;\n        p.name = projectName;\n        p.description = projectDescription;\n        p.projectHash = keccak256(abi.encodePacked(msg.sender, amount, transactionBytecode));\n        p.closed = false;\n        p.approved = false;\n\n        emit ProjectAdded(projectId, p.recipient, amount, p.name, p.approved);\n        numProjects = projectId + 1;\n\n        return projectId;\n    }\n\n\n    function projectApprove(uint projectId) onlyOwner external {\n        Project storage p = projects[projectId];\n\n        // the project mustn't be approved already\n        require(p.approved == false);\n        p.approved = true;\n\n        emit ProjectStatus(projectId, status);\n    }\n\n    function checkProjectCode (\n        uint projectId,\n        address beneficiary,\n        uint amount,\n        bytes transactionBytecode\n    ) constant external returns (bool code) {\n        Project storage p = projects[projectId];\n        return p.projectHash == keccak256(abi.encodePacked(beneficiary, amount, transactionBytecode));\n    }\n\n    function makeDonation(\n        uint projectId,\n        string supportMessage\n    ) external payable returns (uint donationId) {\n        // the platform must be open for business\n        require(status = true);\n        Project storage p = projects[projectId];\n\n        // the sender can't make a donation to himself\n        require(\n            msg.sender != p.recipient &&\n            p.amount >= p.currentAmount &&\n            p.approved == true &&\n            p.closed == false &&\n            transfer(this, msg.value)\n        );\n\n        donationId = p.donations.length++;\n        p.donations[donationId] = Donation({benefactor: msg.sender, amount: msg.value, message: supportMessage});\n        p.numberOfDonations = donationId + 1;\n        p.currentAmount += msg.value;\n        p.lastDonation = block.timestamp;\n\n        emit NewDonation(donationId, projectId, msg.sender, msg.value, supportMessage);\n        return p.numberOfDonations;\n    }\n\n    function getProjectDonationsCount(uint projectId) public constant returns (uint) {\n        Project storage p = projects[projectId];\n\n        return p.donations.length;\n    }\n\n    function getProjectDonation(uint projectId, uint donationId) public constant returns (address benefactor, uint amount, string message) {\n        Project storage p = projects[projectId];\n        Donation storage d = p.donations[donationId];\n\n        benefactor = d.benefactor;\n        amount = d.amount;\n        message = d.message;\n    }\n\n    function retrieveDonations(uint projectId, bytes transactionBytecode) external onlyActor(projectId) {\n        // the platform must be open for business\n        require(status = true);\n\n        Project storage p = projects[projectId];\n\n        require(\n            p.closed == false &&\n            now > p.lastDonation + uint8(90) && // 6 blocks between must have passed between the last donation and the claim\n            p.projectHash == keccak256(abi.encodePacked(p.recipient, p.amount, transactionBytecode))\n        );\n\n        if (p.currentAmount >= p.amount) {\n            require(transferDonation(msg.sender, p.amount * 1 wei));\n\n            p.closed = true;\n            emit ProjectClosed(projectId, p.recipient, p.amount);\n        }\n    }\n\n    // fallback just in case\n    function () public {\n        revert();\n    }\n}\n",
  "sourcePath": "/home/lutangar/workspace/lepetitbloc/benefact.io/contracts/Benefactio.sol",
  "compiler": {
    "name": "solc",
    "version": "0.4.24+commit.e67f0147.Emscripten.clang"
  },
  "schemaVersion": "2.0.1",
  "updatedAt": "2018-08-27T14:36:32.294Z"
}