{
  "contractName": "Benefactio",
  "abi": [
    {
      "constant": true,
      "inputs": [
        {
          "name": "",
          "type": "uint256"
        }
      ],
      "name": "projects",
      "outputs": [
        {
          "name": "recipient",
          "type": "address"
        },
        {
          "name": "amount",
          "type": "uint256"
        },
        {
          "name": "name",
          "type": "string"
        },
        {
          "name": "description",
          "type": "string"
        },
        {
          "name": "projectHash",
          "type": "bytes32"
        },
        {
          "name": "numberOfDonations",
          "type": "uint256"
        },
        {
          "name": "currentAmount",
          "type": "uint256"
        },
        {
          "name": "closed",
          "type": "bool"
        },
        {
          "name": "approved",
          "type": "bool"
        },
        {
          "name": "lastDonation",
          "type": "uint256"
        }
      ],
      "payable": false,
      "stateMutability": "view",
      "type": "function"
    },
    {
      "constant": true,
      "inputs": [
        {
          "name": "",
          "type": "uint256"
        }
      ],
      "name": "benefactors",
      "outputs": [
        {
          "name": "benefactor",
          "type": "address"
        },
        {
          "name": "name",
          "type": "string"
        }
      ],
      "payable": false,
      "stateMutability": "view",
      "type": "function"
    },
    {
      "constant": true,
      "inputs": [],
      "name": "status",
      "outputs": [
        {
          "name": "",
          "type": "bool"
        }
      ],
      "payable": false,
      "stateMutability": "view",
      "type": "function"
    },
    {
      "constant": true,
      "inputs": [],
      "name": "numProjects",
      "outputs": [
        {
          "name": "",
          "type": "uint256"
        }
      ],
      "payable": false,
      "stateMutability": "view",
      "type": "function"
    },
    {
      "constant": false,
      "inputs": [],
      "name": "acceptOwnership",
      "outputs": [],
      "payable": false,
      "stateMutability": "nonpayable",
      "type": "function"
    },
    {
      "constant": true,
      "inputs": [],
      "name": "owner",
      "outputs": [
        {
          "name": "",
          "type": "address"
        }
      ],
      "payable": false,
      "stateMutability": "view",
      "type": "function"
    },
    {
      "constant": true,
      "inputs": [
        {
          "name": "",
          "type": "address"
        }
      ],
      "name": "benefactorId",
      "outputs": [
        {
          "name": "",
          "type": "uint256"
        }
      ],
      "payable": false,
      "stateMutability": "view",
      "type": "function"
    },
    {
      "constant": true,
      "inputs": [],
      "name": "newOwner",
      "outputs": [
        {
          "name": "",
          "type": "address"
        }
      ],
      "payable": false,
      "stateMutability": "view",
      "type": "function"
    },
    {
      "constant": false,
      "inputs": [
        {
          "name": "_newOwner",
          "type": "address"
        }
      ],
      "name": "transferOwnership",
      "outputs": [],
      "payable": false,
      "stateMutability": "nonpayable",
      "type": "function"
    },
    {
      "inputs": [],
      "payable": false,
      "stateMutability": "nonpayable",
      "type": "constructor"
    },
    {
      "payable": false,
      "stateMutability": "nonpayable",
      "type": "fallback"
    },
    {
      "anonymous": false,
      "inputs": [
        {
          "indexed": false,
          "name": "projectId",
          "type": "uint256"
        },
        {
          "indexed": false,
          "name": "recipient",
          "type": "address"
        },
        {
          "indexed": false,
          "name": "amount",
          "type": "uint256"
        },
        {
          "indexed": false,
          "name": "name",
          "type": "string"
        },
        {
          "indexed": false,
          "name": "projectStatus",
          "type": "bool"
        }
      ],
      "name": "ProjectAdded",
      "type": "event"
    },
    {
      "anonymous": false,
      "inputs": [
        {
          "indexed": false,
          "name": "projectId",
          "type": "uint256"
        },
        {
          "indexed": false,
          "name": "recipient",
          "type": "address"
        },
        {
          "indexed": false,
          "name": "amount",
          "type": "uint256"
        }
      ],
      "name": "ProjectClosed",
      "type": "event"
    },
    {
      "anonymous": false,
      "inputs": [
        {
          "indexed": false,
          "name": "projectId",
          "type": "uint256"
        },
        {
          "indexed": false,
          "name": "projectStatus",
          "type": "bool"
        }
      ],
      "name": "ProjectStatus",
      "type": "event"
    },
    {
      "anonymous": false,
      "inputs": [
        {
          "indexed": false,
          "name": "projectId",
          "type": "uint256"
        },
        {
          "indexed": false,
          "name": "actor",
          "type": "address"
        },
        {
          "indexed": false,
          "name": "amount",
          "type": "uint256"
        },
        {
          "indexed": false,
          "name": "message",
          "type": "string"
        }
      ],
      "name": "NewDonation",
      "type": "event"
    },
    {
      "anonymous": false,
      "inputs": [
        {
          "indexed": false,
          "name": "benefactor",
          "type": "address"
        },
        {
          "indexed": false,
          "name": "isBenefactor",
          "type": "bool"
        }
      ],
      "name": "BenefactorsChanged",
      "type": "event"
    },
    {
      "anonymous": false,
      "inputs": [
        {
          "indexed": false,
          "name": "status",
          "type": "bool"
        }
      ],
      "name": "PlatformStatus",
      "type": "event"
    },
    {
      "anonymous": false,
      "inputs": [
        {
          "indexed": true,
          "name": "_from",
          "type": "address"
        },
        {
          "indexed": true,
          "name": "_to",
          "type": "address"
        }
      ],
      "name": "OwnershipTransferred",
      "type": "event"
    },
    {
      "anonymous": false,
      "inputs": [
        {
          "indexed": true,
          "name": "from",
          "type": "address"
        },
        {
          "indexed": true,
          "name": "to",
          "type": "address"
        },
        {
          "indexed": false,
          "name": "tokens",
          "type": "uint256"
        }
      ],
      "name": "Transfer",
      "type": "event"
    },
    {
      "constant": false,
      "inputs": [],
      "name": "open",
      "outputs": [],
      "payable": false,
      "stateMutability": "nonpayable",
      "type": "function"
    },
    {
      "constant": false,
      "inputs": [],
      "name": "close",
      "outputs": [],
      "payable": false,
      "stateMutability": "nonpayable",
      "type": "function"
    },
    {
      "constant": false,
      "inputs": [
        {
          "name": "targetBenefactor",
          "type": "address"
        },
        {
          "name": "benefactorName",
          "type": "string"
        }
      ],
      "name": "addBenefactor",
      "outputs": [],
      "payable": false,
      "stateMutability": "nonpayable",
      "type": "function"
    },
    {
      "constant": false,
      "inputs": [
        {
          "name": "targetBenefactor",
          "type": "address"
        }
      ],
      "name": "removeBenefactor",
      "outputs": [],
      "payable": false,
      "stateMutability": "nonpayable",
      "type": "function"
    },
    {
      "constant": false,
      "inputs": [
        {
          "name": "amount",
          "type": "uint256"
        },
        {
          "name": "projectName",
          "type": "string"
        },
        {
          "name": "projectDescription",
          "type": "string"
        },
        {
          "name": "transactionBytecode",
          "type": "bytes"
        }
      ],
      "name": "newProject",
      "outputs": [
        {
          "name": "projectId",
          "type": "uint256"
        }
      ],
      "payable": false,
      "stateMutability": "nonpayable",
      "type": "function"
    },
    {
      "constant": false,
      "inputs": [
        {
          "name": "projectId",
          "type": "uint256"
        }
      ],
      "name": "projectApprove",
      "outputs": [],
      "payable": false,
      "stateMutability": "nonpayable",
      "type": "function"
    },
    {
      "constant": true,
      "inputs": [
        {
          "name": "projectId",
          "type": "uint256"
        },
        {
          "name": "beneficiary",
          "type": "address"
        },
        {
          "name": "amount",
          "type": "uint256"
        },
        {
          "name": "transactionBytecode",
          "type": "bytes"
        }
      ],
      "name": "checkProjectCode",
      "outputs": [
        {
          "name": "code",
          "type": "bool"
        }
      ],
      "payable": false,
      "stateMutability": "view",
      "type": "function"
    },
    {
      "constant": false,
      "inputs": [
        {
          "name": "projectId",
          "type": "uint256"
        },
        {
          "name": "supportMessage",
          "type": "string"
        }
      ],
      "name": "makeDonation",
      "outputs": [
        {
          "name": "donationId",
          "type": "uint256"
        }
      ],
      "payable": true,
      "stateMutability": "payable",
      "type": "function"
    },
    {
      "constant": false,
      "inputs": [
        {
          "name": "projectId",
          "type": "uint256"
        },
        {
          "name": "transactionBytecode",
          "type": "bytes"
        }
      ],
      "name": "retrieveDonations",
      "outputs": [],
      "payable": true,
      "stateMutability": "payable",
      "type": "function"
    }
  ],
  "bytecode": "0x60806040523480156200001157600080fd5b5033600260006101000a81548173ffffffffffffffffffffffffffffffffffffffff021916908373ffffffffffffffffffffffffffffffffffffffff1602179055506200006c62000110640100000000026401000000009004565b6200009860006020604051908101604052806000815250620001c6640100000000026401000000009004565b6200010a600260009054906101000a900473ffffffffffffffffffffffffffffffffffffffff166040805190810160405280600781526020017f666f756e64657200000000000000000000000000000000000000000000000000815250620001c6640100000000026401000000009004565b62000585565b600260009054906101000a900473ffffffffffffffffffffffffffffffffffffffff1673ffffffffffffffffffffffffffffffffffffffff163373ffffffffffffffffffffffffffffffffffffffff161415156200016d57600080fd5b6000600560006101000a81548160ff0219169083151502179055507fd8b3bf9c320266e1c148e47e62cb34ce82ad60076e6f04a4ed3be8e69d21cef86000604051808215151515815260200191505060405180910390a1565b6000600260009054906101000a900473ffffffffffffffffffffffffffffffffffffffff1673ffffffffffffffffffffffffffffffffffffffff163373ffffffffffffffffffffffffffffffffffffffff161415156200022557600080fd5b600660008473ffffffffffffffffffffffffffffffffffffffff1673ffffffffffffffffffffffffffffffffffffffff1681526020019081526020016000205490508060001415620002d357600880549050600660008573ffffffffffffffffffffffffffffffffffffffff1673ffffffffffffffffffffffffffffffffffffffff1681526020019081526020016000208190555060088054809190600101620002d09190620003fa565b90505b60408051908101604052808473ffffffffffffffffffffffffffffffffffffffff168152602001838152506008828154811015156200030e57fe5b906000526020600020906002020160008201518160000160006101000a81548173ffffffffffffffffffffffffffffffffffffffff021916908373ffffffffffffffffffffffffffffffffffffffff1602179055506020820151816001019080519060200190620003819291906200042f565b509050507f0e72c2bc4f1d3cc093c11a0114823ac8bb2f8010a3a1177b576fc0ced11106f4836001604051808373ffffffffffffffffffffffffffffffffffffffff1673ffffffffffffffffffffffffffffffffffffffff168152602001821515151581526020019250505060405180910390a1505050565b8154818355818111156200042a57600202816002028360005260206000209182019101620004299190620004b6565b5b505050565b828054600181600116156101000203166002900490600052602060002090601f016020900481019282601f106200047257805160ff1916838001178555620004a3565b82800160010185558215620004a3579182015b82811115620004a257825182559160200191906001019062000485565b5b509050620004b2919062000511565b5090565b6200050e91905b808211156200050a57600080820160006101000a81549073ffffffffffffffffffffffffffffffffffffffff021916905560018201600062000500919062000539565b50600201620004bd565b5090565b90565b6200053691905b808211156200053257600081600090555060010162000518565b5090565b90565b50805460018160011615610100020316600290046000825580601f1062000561575062000582565b601f01602090049060005260206000209081019062000581919062000511565b5b50565b6127b380620005956000396000f3006080604052600436106100fc576000357c0100000000000000000000000000000000000000000000000000000000900463ffffffff16806304aef2601461010e578063107046bd14610146578063128ee161146102cc578063200d2ed2146103a557806337f4e351146103d457806343d726d61461045b57806344d7e238146104725780635a067baa146104fb57806379ba5097146105265780638da5cb5b1461053d578063a98d22bc14610594578063aec8d859146105d7578063c3eb6c5414610623578063d4ee1d901461067a578063e3103a3b146106d1578063f2fde38b1461075a578063f4f8609c1461079d578063fcfff16f146107ca575b34801561010857600080fd5b50600080fd5b610144600480360381019080803590602001909291908035906020019082018035906020019190919293919293905050506107e1565b005b34801561015257600080fd5b5061017160048036038101908080359060200190929190505050610b29565b604051808b73ffffffffffffffffffffffffffffffffffffffff1673ffffffffffffffffffffffffffffffffffffffff1681526020018a815260200180602001806020018960001916600019168152602001888152602001878152602001861515151581526020018515151515815260200184815260200183810383528b818151815260200191508051906020019080838360005b83811015610221578082015181840152602081019050610206565b50505050905090810190601f16801561024e5780820380516001836020036101000a031916815260200191505b5083810382528a818151815260200191508051906020019080838360005b8381101561028757808201518184015260208101905061026c565b50505050905090810190601f1680156102b45780820380516001836020036101000a031916815260200191505b509c5050505050505050505050505060405180910390f35b3480156102d857600080fd5b506102f760048036038101908080359060200190929190505050610cf6565b604051808373ffffffffffffffffffffffffffffffffffffffff1673ffffffffffffffffffffffffffffffffffffffff16815260200180602001828103825283818151815260200191508051906020019080838360005b8381101561036957808201518184015260208101905061034e565b50505050905090810190601f1680156103965780820380516001836020036101000a031916815260200191505b50935050505060405180910390f35b3480156103b157600080fd5b506103ba610de1565b604051808215151515815260200191505060405180910390f35b3480156103e057600080fd5b5061044160048036038101908080359060200190929190803573ffffffffffffffffffffffffffffffffffffffff16906020019092919080359060200190929190803590602001908201803590602001919091929391929390505050610df4565b604051808215151515815260200191505060405180910390f35b34801561046757600080fd5b50610470610f04565b005b34801561047e57600080fd5b506104f9600480360381019080803573ffffffffffffffffffffffffffffffffffffffff169060200190929190803590602001908201803590602001908080601f0160208091040260200160405190810160405280939291908181526020018383808284378201915050505050509192919290505050610fb9565b005b34801561050757600080fd5b506105106111e6565b6040518082815260200191505060405180910390f35b34801561053257600080fd5b5061053b6111ec565b005b34801561054957600080fd5b5061055261138d565b604051808273ffffffffffffffffffffffffffffffffffffffff1673ffffffffffffffffffffffffffffffffffffffff16815260200191505060405180910390f35b3480156105a057600080fd5b506105d5600480360381019080803573ffffffffffffffffffffffffffffffffffffffff1690602001909291905050506113b3565b005b61060d60048036038101908080359060200190929190803590602001908201803590602001919091929391929390505050611678565b6040518082815260200191505060405180910390f35b34801561062f57600080fd5b50610664600480360381019080803573ffffffffffffffffffffffffffffffffffffffff1690602001909291905050506118ab565b6040518082815260200191505060405180910390f35b34801561068657600080fd5b5061068f6118c3565b604051808273ffffffffffffffffffffffffffffffffffffffff1673ffffffffffffffffffffffffffffffffffffffff16815260200191505060405180910390f35b3480156106dd57600080fd5b50610744600480360381019080803590602001909291908035906020019082018035906020019190919293919293908035906020019082018035906020019190919293919293908035906020019082018035906020019190919293919293905050506118e9565b6040518082815260200191505060405180910390f35b34801561076657600080fd5b5061079b600480360381019080803573ffffffffffffffffffffffffffffffffffffffff169060200190929190505050611c80565b005b3480156107a957600080fd5b506107c860048036038101908080359060200190929190505050611d20565b005b3480156107d657600080fd5b506107df611e34565b005b600080600660003373ffffffffffffffffffffffffffffffffffffffff1673ffffffffffffffffffffffffffffffffffffffff168152602001908152602001600020541415151561083157600080fd5b6001600560006101000a81548160ff0219169083151502179055151561085657600080fd5b60078481548110151561086557fe5b90600052602060002090600a02019050600015158160070160009054906101000a900460ff1615151480156108a35750605a60ff1681600801540142115b80156108fe57503373ffffffffffffffffffffffffffffffffffffffff168160000160009054906101000a900473ffffffffffffffffffffffffffffffffffffffff1673ffffffffffffffffffffffffffffffffffffffff16145b8015610a1057508060000160009054906101000a900473ffffffffffffffffffffffffffffffffffffffff1681600101548484604051602001808573ffffffffffffffffffffffffffffffffffffffff1673ffffffffffffffffffffffffffffffffffffffff166c0100000000000000000000000002815260140184815260200183838082843782019150509450505050506040516020818303038152906040526040518082805190602001908083835b6020831015156109d457805182526020820191506020810190506020830392506109af565b6001836020036101000a038019825116818451168082178552505050505050905001915050604051809103902060001916816004015460001916145b1515610a1b57600080fd5b80600101548160060154101515610b235760018160070160006101000a81548160ff0219169083151502179055507f67fa9cc3e4d0e1149807068cafc06619e43566e289268916bc4a2bc667b54a6c848260000160009054906101000a900473ffffffffffffffffffffffffffffffffffffffff168360010154604051808481526020018373ffffffffffffffffffffffffffffffffffffffff1673ffffffffffffffffffffffffffffffffffffffff168152602001828152602001935050505060405180910390a1610b17308260000160009054906101000a900473ffffffffffffffffffffffffffffffffffffffff168360010154611ee9565b1515610b2257600080fd5b5b50505050565b600781815481101515610b3857fe5b90600052602060002090600a02016000915090508060000160009054906101000a900473ffffffffffffffffffffffffffffffffffffffff1690806001015490806002018054600181600116156101000203166002900480601f016020809104026020016040519081016040528092919081815260200182805460018160011615610100020316600290048015610c105780601f10610be557610100808354040283529160200191610c10565b820191906000526020600020905b815481529060010190602001808311610bf357829003601f168201915b505050505090806003018054600181600116156101000203166002900480601f016020809104026020016040519081016040528092919081815260200182805460018160011615610100020316600290048015610cae5780601f10610c8357610100808354040283529160200191610cae565b820191906000526020600020905b815481529060010190602001808311610c9157829003601f168201915b5050505050908060040154908060050154908060060154908060070160009054906101000a900460ff16908060070160019054906101000a900460ff1690806008015490508a565b600881815481101515610d0557fe5b90600052602060002090600202016000915090508060000160009054906101000a900473ffffffffffffffffffffffffffffffffffffffff1690806001018054600181600116156101000203166002900480601f016020809104026020016040519081016040528092919081815260200182805460018160011615610100020316600290048015610dd75780601f10610dac57610100808354040283529160200191610dd7565b820191906000526020600020905b815481529060010190602001808311610dba57829003601f168201915b5050505050905082565b600560009054906101000a900460ff1681565b600080600787815481101515610e0657fe5b90600052602060002090600a0201905085858585604051602001808573ffffffffffffffffffffffffffffffffffffffff1673ffffffffffffffffffffffffffffffffffffffff166c0100000000000000000000000002815260140184815260200183838082843782019150509450505050506040516020818303038152906040526040518082805190602001908083835b602083101515610ebd5780518252602082019150602081019050602083039250610e98565b6001836020036101000a0380198251168184511680821785525050505050509050019150506040518091039020600019168160040154600019161491505095945050505050565b600260009054906101000a900473ffffffffffffffffffffffffffffffffffffffff1673ffffffffffffffffffffffffffffffffffffffff163373ffffffffffffffffffffffffffffffffffffffff16141515610f6057600080fd5b6000600560006101000a81548160ff0219169083151502179055507fd8b3bf9c320266e1c148e47e62cb34ce82ad60076e6f04a4ed3be8e69d21cef86000604051808215151515815260200191505060405180910390a1565b6000600260009054906101000a900473ffffffffffffffffffffffffffffffffffffffff1673ffffffffffffffffffffffffffffffffffffffff163373ffffffffffffffffffffffffffffffffffffffff1614151561101757600080fd5b600660008473ffffffffffffffffffffffffffffffffffffffff1673ffffffffffffffffffffffffffffffffffffffff16815260200190815260200160002054905080600014156110c257600880549050600660008573ffffffffffffffffffffffffffffffffffffffff1673ffffffffffffffffffffffffffffffffffffffff16815260200190815260200160002081905550600880548091906001016110bf919061235f565b90505b60408051908101604052808473ffffffffffffffffffffffffffffffffffffffff168152602001838152506008828154811015156110fc57fe5b906000526020600020906002020160008201518160000160006101000a81548173ffffffffffffffffffffffffffffffffffffffff021916908373ffffffffffffffffffffffffffffffffffffffff160217905550602082015181600101908051906020019061116d929190612391565b509050507f0e72c2bc4f1d3cc093c11a0114823ac8bb2f8010a3a1177b576fc0ced11106f4836001604051808373ffffffffffffffffffffffffffffffffffffffff1673ffffffffffffffffffffffffffffffffffffffff168152602001821515151581526020019250505060405180910390a1505050565b60045481565b600360009054906101000a900473ffffffffffffffffffffffffffffffffffffffff1673ffffffffffffffffffffffffffffffffffffffff163373ffffffffffffffffffffffffffffffffffffffff1614151561124857600080fd5b600360009054906101000a900473ffffffffffffffffffffffffffffffffffffffff1673ffffffffffffffffffffffffffffffffffffffff16600260009054906101000a900473ffffffffffffffffffffffffffffffffffffffff1673ffffffffffffffffffffffffffffffffffffffff167f8be0079c531659141344cd1fd0a4f28419497f9722a3daafe3b4186f6b6457e060405160405180910390a3600360009054906101000a900473ffffffffffffffffffffffffffffffffffffffff16600260006101000a81548173ffffffffffffffffffffffffffffffffffffffff021916908373ffffffffffffffffffffffffffffffffffffffff1602179055506000600360006101000a81548173ffffffffffffffffffffffffffffffffffffffff021916908373ffffffffffffffffffffffffffffffffffffffff160217905550565b600260009054906101000a900473ffffffffffffffffffffffffffffffffffffffff1681565b6000600260009054906101000a900473ffffffffffffffffffffffffffffffffffffffff1673ffffffffffffffffffffffffffffffffffffffff163373ffffffffffffffffffffffffffffffffffffffff1614151561141157600080fd5b6000600660008473ffffffffffffffffffffffffffffffffffffffff1673ffffffffffffffffffffffffffffffffffffffff168152602001908152602001600020541415151561146057600080fd5b600660008373ffffffffffffffffffffffffffffffffffffffff1673ffffffffffffffffffffffffffffffffffffffff1681526020019081526020016000205490505b60016008805490500381101561158f576008600182018154811015156114c557fe5b90600052602060002090600202016008828154811015156114e257fe5b90600052602060002090600202016000820160009054906101000a900473ffffffffffffffffffffffffffffffffffffffff168160000160006101000a81548173ffffffffffffffffffffffffffffffffffffffff021916908373ffffffffffffffffffffffffffffffffffffffff1602179055506001820181600101908054600181600116156101000203166002900461157e929190612411565b5090505080806001019150506114a3565b60086001600880549050038154811015156115a657fe5b9060005260206000209060020201600080820160006101000a81549073ffffffffffffffffffffffffffffffffffffffff02191690556001820160006115ec9190612498565b50506008805480919060019003611603919061235f565b507f0e72c2bc4f1d3cc093c11a0114823ac8bb2f8010a3a1177b576fc0ced11106f4826000604051808373ffffffffffffffffffffffffffffffffffffffff1673ffffffffffffffffffffffffffffffffffffffff168152602001821515151581526020019250505060405180910390a15050565b6000806001600560006101000a81548160ff021916908315150217905515156116a057600080fd5b6007858154811015156116af57fe5b90600052602060002090600a020190506116c93034612190565b15156116d457600080fd5b8060090180548091906001016116ea91906124e0565b91506060604051908101604052803373ffffffffffffffffffffffffffffffffffffffff16815260200134815260200185858080601f016020809104026020016040519081016040528093929190818152602001838380828437820191505050505050815250816009018381548110151561176157fe5b906000526020600020906003020160008201518160000160006101000a81548173ffffffffffffffffffffffffffffffffffffffff021916908373ffffffffffffffffffffffffffffffffffffffff1602179055506020820151816001015560408201518160020190805190602001906117dc929190612391565b509050506001820181600501819055503481600601600082825401925050819055504281600801819055507f9662b680260443ee5fb3c090055afd9612722df53cce4f9f33a880c5494418738533348787604051808681526020018573ffffffffffffffffffffffffffffffffffffffff1673ffffffffffffffffffffffffffffffffffffffff1681526020018481526020018060200182810382528484828181526020019250808284378201915050965050505050505060405180910390a180600501549150509392505050565b60066020528060005260406000206000915090505481565b600360009054906101000a900473ffffffffffffffffffffffffffffffffffffffff1681565b6000806000600660003373ffffffffffffffffffffffffffffffffffffffff1673ffffffffffffffffffffffffffffffffffffffff168152602001908152602001600020541415151561193b57600080fd5b6001600560006101000a81548160ff0219169083151502179055151561196057600080fd5b600780548091906001016119749190612512565b915060078281548110151561198557fe5b90600052602060002090600a02019050338160000160006101000a81548173ffffffffffffffffffffffffffffffffffffffff021916908373ffffffffffffffffffffffffffffffffffffffff16021790555060018902816001018190555087878260020191906119f7929190612544565b508585826003019190611a0b929190612544565b5033898585604051602001808573ffffffffffffffffffffffffffffffffffffffff1673ffffffffffffffffffffffffffffffffffffffff166c0100000000000000000000000002815260140184815260200183838082843782019150509450505050506040516020818303038152906040526040518082805190602001908083835b602083101515611ab35780518252602082019150602081019050602083039250611a8e565b6001836020036101000a038019825116818451168082178552505050505050905001915050604051809103902081600401816000191690555060008160070160006101000a81548160ff02191690831515021790555060008160070160016101000a81548160ff0219169083151502179055507fad029e3588fde6752fb73c61133ae0d8a6a2a9abcdb9158b7ba5f17c9f133e37828260000160009054906101000a900473ffffffffffffffffffffffffffffffffffffffff168b846002018560070160019054906101000a900460ff16604051808681526020018573ffffffffffffffffffffffffffffffffffffffff1673ffffffffffffffffffffffffffffffffffffffff1681526020018481526020018060200183151515158152602001828103825284818154600181600116156101000203166002900481526020019150805460018160011615610100020316600290048015611c555780601f10611c2a57610100808354040283529160200191611c55565b820191906000526020600020905b815481529060010190602001808311611c3857829003601f168201915b5050965050505050505060405180910390a16001820160048190555081915050979650505050505050565b600260009054906101000a900473ffffffffffffffffffffffffffffffffffffffff1673ffffffffffffffffffffffffffffffffffffffff163373ffffffffffffffffffffffffffffffffffffffff16141515611cdc57600080fd5b80600360006101000a81548173ffffffffffffffffffffffffffffffffffffffff021916908373ffffffffffffffffffffffffffffffffffffffff16021790555050565b6000600260009054906101000a900473ffffffffffffffffffffffffffffffffffffffff1673ffffffffffffffffffffffffffffffffffffffff163373ffffffffffffffffffffffffffffffffffffffff16141515611d7e57600080fd5b600782815481101515611d8d57fe5b90600052602060002090600a02019050600015158160070160019054906101000a900460ff161515141515611dc157600080fd5b60018160070160016101000a81548160ff0219169083151502179055507f5acfcecb3b608e8468b0b3a6474e8e3fa7649b91bb3e386348e9be8bf4d0c24282600560009054906101000a900460ff1660405180838152602001821515151581526020019250505060405180910390a15050565b600260009054906101000a900473ffffffffffffffffffffffffffffffffffffffff1673ffffffffffffffffffffffffffffffffffffffff163373ffffffffffffffffffffffffffffffffffffffff16141515611e9057600080fd5b6001600560006101000a81548160ff0219169083151502179055507fd8b3bf9c320266e1c148e47e62cb34ce82ad60076e6f04a4ed3be8e69d21cef86001604051808215151515815260200191505060405180910390a1565b6000611f3c826000808773ffffffffffffffffffffffffffffffffffffffff1673ffffffffffffffffffffffffffffffffffffffff1681526020019081526020016000205461232790919063ffffffff16565b6000808673ffffffffffffffffffffffffffffffffffffffff1673ffffffffffffffffffffffffffffffffffffffff1681526020019081526020016000208190555061200d82600160008773ffffffffffffffffffffffffffffffffffffffff1673ffffffffffffffffffffffffffffffffffffffff16815260200190815260200160002060003373ffffffffffffffffffffffffffffffffffffffff1673ffffffffffffffffffffffffffffffffffffffff1681526020019081526020016000205461232790919063ffffffff16565b600160008673ffffffffffffffffffffffffffffffffffffffff1673ffffffffffffffffffffffffffffffffffffffff16815260200190815260200160002060003373ffffffffffffffffffffffffffffffffffffffff1673ffffffffffffffffffffffffffffffffffffffff168152602001908152602001600020819055506120de826000808673ffffffffffffffffffffffffffffffffffffffff1673ffffffffffffffffffffffffffffffffffffffff1681526020019081526020016000205461234390919063ffffffff16565b6000808573ffffffffffffffffffffffffffffffffffffffff1673ffffffffffffffffffffffffffffffffffffffff168152602001908152602001600020819055508273ffffffffffffffffffffffffffffffffffffffff168473ffffffffffffffffffffffffffffffffffffffff167fddf252ad1be2c89b69c2b068fc378daa952ba7f163c4a11628f55a4df523b3ef846040518082815260200191505060405180910390a3600190509392505050565b60006121e3826000803373ffffffffffffffffffffffffffffffffffffffff1673ffffffffffffffffffffffffffffffffffffffff1681526020019081526020016000205461232790919063ffffffff16565b6000803373ffffffffffffffffffffffffffffffffffffffff1673ffffffffffffffffffffffffffffffffffffffff16815260200190815260200160002081905550612276826000808673ffffffffffffffffffffffffffffffffffffffff1673ffffffffffffffffffffffffffffffffffffffff1681526020019081526020016000205461234390919063ffffffff16565b6000808573ffffffffffffffffffffffffffffffffffffffff1673ffffffffffffffffffffffffffffffffffffffff168152602001908152602001600020819055508273ffffffffffffffffffffffffffffffffffffffff163373ffffffffffffffffffffffffffffffffffffffff167fddf252ad1be2c89b69c2b068fc378daa952ba7f163c4a11628f55a4df523b3ef846040518082815260200191505060405180910390a36001905092915050565b600082821115151561233857600080fd5b818303905092915050565b6000818301905082811015151561235957600080fd5b92915050565b81548183558181111561238c5760020281600202836000526020600020918201910161238b91906125c4565b5b505050565b828054600181600116156101000203166002900490600052602060002090601f016020900481019282601f106123d257805160ff1916838001178555612400565b82800160010185558215612400579182015b828111156123ff5782518255916020019190600101906123e4565b5b50905061240d919061261a565b5090565b828054600181600116156101000203166002900490600052602060002090601f016020900481019282601f1061244a5780548555612487565b8280016001018555821561248757600052602060002091601f016020900482015b8281111561248657825482559160010191906001019061246b565b5b509050612494919061261a565b5090565b50805460018160011615610100020316600290046000825580601f106124be57506124dd565b601f0160209004906000526020600020908101906124dc919061261a565b5b50565b81548183558181111561250d5760030281600302836000526020600020918201910161250c919061263f565b5b505050565b81548183558181111561253f57600a0281600a02836000526020600020918201910161253e919061269d565b5b505050565b828054600181600116156101000203166002900490600052602060002090601f016020900481019282601f1061258557803560ff19168380011785556125b3565b828001600101855582156125b3579182015b828111156125b2578235825591602001919060010190612597565b5b5090506125c0919061261a565b5090565b61261791905b8082111561261357600080820160006101000a81549073ffffffffffffffffffffffffffffffffffffffff021916905560018201600061260a9190612498565b506002016125ca565b5090565b90565b61263c91905b80821115612638576000816000905550600101612620565b5090565b90565b61269a91905b8082111561269657600080820160006101000a81549073ffffffffffffffffffffffffffffffffffffffff0219169055600182016000905560028201600061268d9190612498565b50600301612645565b5090565b90565b61276091905b8082111561275c57600080820160006101000a81549073ffffffffffffffffffffffffffffffffffffffff021916905560018201600090556002820160006126eb9190612498565b6003820160006126fb9190612498565b6004820160009055600582016000905560068201600090556007820160006101000a81549060ff02191690556007820160016101000a81549060ff021916905560088201600090556009820160006127539190612763565b50600a016126a3565b5090565b90565b5080546000825560030290600052602060002090810190612784919061263f565b505600a165627a7a723058200fe8ebd6f91d00a8b369ade0e668f241d91941e6bbaf1c747b607764d55d44270029",
  "source": "pragma solidity ^0.4.24;\n\nimport './library/SafeMath.sol';\nimport './basic/Owned.sol';\nimport './basic/TokenInterface.sol';\n\ncontract Token is TokenInterface {\n    using SafeMath for uint;\n\n    mapping(address => uint) balances;\n    mapping(address => mapping(address => uint)) allowed;\n\n    // ------------------------------------------------------------------------\n    // Transfer the balance from token owner's account to `to` account\n    // - Owner's account must have sufficient balance to transfer\n    // - 0 value transfers are allowed\n    // ------------------------------------------------------------------------\n    function transfer(address to, uint tokens) internal returns (bool success) {\n        balances[msg.sender] = balances[msg.sender].sub(tokens);\n        balances[to] = balances[to].add(tokens);\n\n        emit Transfer(msg.sender, to, tokens);\n        return true;\n    }\n\n    // ------------------------------------------------------------------------\n    // Transfer `tokens` from the `from` account to the `to` account\n    //\n    // The calling account must already have sufficient tokens approve(...)-d\n    // for spending from the `from` account and\n    // - From account must have sufficient balance to transfer\n    // - Spender must have sufficient allowance to transfer\n    // - 0 value transfers are allowed\n    // ------------------------------------------------------------------------\n    function transferFrom(address from, address to, uint tokens) internal returns (bool success) {\n        balances[from] = balances[from].sub(tokens);\n        allowed[from][msg.sender] = allowed[from][msg.sender].sub(tokens);\n        balances[to] = balances[to].add(tokens);\n\n        emit Transfer(from, to, tokens);\n        return true;\n    }\n}\n\ncontract Benefactio is Token, Owned {\n    uint public numProjects;\n    bool public status;\n\n    mapping (address => uint) public benefactorId;\n\n    Project[] public projects;\n    Benefactor[] public benefactors;\n\n    event ProjectAdded(uint projectId, address recipient, uint amount, string name, bool projectStatus);\n    event ProjectClosed(uint projectId, address recipient, uint amount);\n    event ProjectStatus(uint projectId, bool projectStatus);\n    event NewDonation(uint projectId, address actor, uint amount, string message);\n    event BenefactorsChanged(address benefactor, bool isBenefactor);\n\n    event PlatformStatus(bool status);\n\n    struct Project {\n        address recipient;\n        uint amount;\n        string name;\n        string description;\n        bytes32 projectHash;\n        uint numberOfDonations;\n        uint currentAmount;\n        bool closed;\n        bool approved;\n        uint256 lastDonation;\n\n        Donation[] donations;\n    }\n\n    struct Benefactor {\n        address benefactor;\n        string name;\n    }\n\n    struct Donation {\n        address actor;\n        uint amount;\n        string message;\n    }\n\n    modifier onlyBenefactors {\n        require(benefactorId[msg.sender] != 0);\n        _;\n    }\n\n    constructor() public {\n        close();\n\n        addBenefactor(0, '');\n        addBenefactor(owner, 'founder');\n    }\n\n    function open() onlyOwner external {\n        status = true;\n        emit PlatformStatus(true);\n    }\n\n    function close() onlyOwner public {\n        status = false;\n        emit PlatformStatus(false);\n    }\n\n    function addBenefactor(address targetBenefactor, string benefactorName) onlyOwner public {\n        uint id = benefactorId[targetBenefactor];\n        if (0 == id) {\n            benefactorId[targetBenefactor] = benefactors.length;\n            id =  benefactors.length++;\n        }\n\n        benefactors[id] = Benefactor({benefactor: targetBenefactor, name: benefactorName});\n        emit BenefactorsChanged(targetBenefactor, true);\n    }\n\n    function removeBenefactor(address targetBenefactor) onlyOwner public {\n        require(benefactorId[targetBenefactor] != 0);\n\n        for (uint i = benefactorId[targetBenefactor]; i < benefactors.length - 1; i++) {\n            benefactors[i] = benefactors[i + 1];\n        }\n\n        delete benefactors[benefactors.length - 1];\n        benefactors.length--;\n\n        emit BenefactorsChanged(targetBenefactor, false);\n    }\n\n    function newProject(\n        uint amount,\n        string projectName,\n        string projectDescription,\n        bytes transactionBytecode\n    ) onlyBenefactors external returns (uint projectId) {\n        require(status = true);\n\n        projectId = projects.length++;\n\n        Project storage p = projects[projectId];\n        p.recipient = msg.sender;\n        p.amount = amount * 1 wei;\n        p.name = projectName;\n        p.description = projectDescription;\n        p.projectHash = keccak256(abi.encodePacked(msg.sender, amount, transactionBytecode));\n        p.closed = false;\n        p.approved = false;\n\n        emit ProjectAdded(projectId, p.recipient, amount, p.name, p.approved);\n        numProjects = projectId + 1;\n\n        return projectId;\n    }\n\n    function projectApprove(uint projectId) onlyOwner external {\n        Project storage p = projects[projectId];\n\n        require(p.approved == false);\n        p.approved = true;\n\n        emit ProjectStatus(projectId, status);\n    }\n\n    function checkProjectCode (\n        uint projectId,\n        address beneficiary,\n        uint amount,\n        bytes transactionBytecode\n    ) constant external returns (bool code) {\n        Project storage p = projects[projectId];\n        return p.projectHash == keccak256(abi.encodePacked(beneficiary, amount, transactionBytecode));\n    }\n\n    function makeDonation(\n        uint projectId,\n        string supportMessage\n    ) external payable returns (uint donationId) {\n        require(status = true);\n        Project storage p = projects[projectId];\n\n        require(transfer(this, msg.value));\n\n        donationId = p.donations.length++;\n        p.donations[donationId] = Donation({actor: msg.sender, amount: msg.value, message: supportMessage});\n        p.numberOfDonations = donationId + 1;\n        p.currentAmount += msg.value;\n        p.lastDonation = block.timestamp;\n\n        emit NewDonation(projectId, msg.sender, msg.value, supportMessage);\n        return p.numberOfDonations;\n    }\n\n    function retrieveDonations(uint projectId, bytes transactionBytecode) onlyBenefactors external payable {\n        require(status = true);\n\n        Project storage p = projects[projectId];\n\n        require(\n            p.closed == false &&\n            now > p.lastDonation + uint8(90) && // 6 blocks between last donation and retrieve\n            p.recipient == msg.sender &&\n            p.projectHash == keccak256(abi.encodePacked(p.recipient, p.amount, transactionBytecode))\n        );\n\n        if (p.currentAmount >= p.amount) {\n            p.closed = true;\n            emit ProjectClosed(projectId, p.recipient, p.amount);\n\n            // avoid reentrancy\n            require(transferFrom(this, p.recipient, p.amount));\n        }\n    }\n\n    // fallback just in case\n    function () public {\n        revert();\n    }\n}\n",
  "sourcePath": "/home/lutangar/workspace/lepetitbloc/benefact.io/contracts/Benefactio.sol",
  "compiler": {
    "name": "solc",
    "version": "0.4.24+commit.e67f0147.Emscripten.clang"
  },
  "schemaVersion": "2.0.1",
  "updatedAt": "2018-08-26T18:42:14.052Z"
}